S00E00004D61737465722E73726563AA
S113000072C000009EC000009CC00000C9C0000077
S113001098C0000096C00000EAC0000092C0000032
S113002090C000008EC000008CC000008AC0000098
S113003088C0000086C0000084C0000082C00000A8
S113004080C000007EC000007CC000007AC00000B8
S113005078C0000076C0000074C00000EFC000004B
S113006070C0000027C4000054C400006AC000002F
S113007068C0000066C0000064C0000062C00000E8
S113008060C000005EC000005CC000005AC00000F8
S113009087C40000B4C4000054C0000052C0000073
S11300A050C000004EC000004CC000004AC0000018
S11300B048C0000046C0000044C0000042C0000028
S11300C040C000003EC000003CC00000C6C40000A8
S11300D0F3C4000036C000004BC5000078C5000022
S11300E030C00000E30311241FBECFEFD1E2DEBF16
S11300F0CDBF00E00CBF12E0A0E0B2E0E2ECF0E122
S113010000E00BBF02C007900D92A433B107D9F7EA
S113011024E0A4E3B2E001C01D92A131B207E1F7EB
S113012010E0C3E7D0E000E005C021970109802F6B
S1130130FE01BDD7C237D10780E00807B1F72DD340
S1130140BEC75ECF789480E3809369008CE080938F
S11301506A008DB384628DBB0895789485B58560FB
S113016085BD81E080936E000895CF93DF93EC0109
S113017068817981072E000C880B990B5AD62EEFD3
S113018034E346E353E409D720E030E048E453E4A1
S1130190B5D56C837D838E839F83DF91CF91089542
S11301A01F920F920FB60F9211240BB60F928F93DA
S11301B09F93EF93FF93009B08C0ECE3F2E08081F0
S11301C0918101969183808307C0ECE3F2E0808102
S11301D09181019791838083FF91EF919F918F91FA
S11301E00F900BBE0F900FBE0F901F9018951F928B
S11301F00F920FB60F9211240BB60F928F939F9309
S1130200EF93FF93059B08C0E4E3F2E080819181C2
S113021001969183808307C0E4E3F2E080819181B9
S1130220019791838083FF91EF919F918F910F901C
S11302300BBE0F900FBE0F901F9018951F920F9238
S11302400FB60F9211248F9381E080930102809363
S1130250000280930202809303028F910F900FBEDD
S11302600F901F901895DED28AE1E2D28BE010D372
S113027081E00ED304D38AE1DBD289E009D381E1A2
S113028007D3FDC20895CF93DF938FE75CD4C9EF02
S1130290D2E0888158D4898156D48A8154D48B8100
S11302A052D4DF91CF9108952F923F924F925F9253
S11302B06F927F928F929F92AF92BF92CF92DF9272
S11302C0EF92FF920F931F93CF93DF9300D000D050
S11302D0CDB7DEB70F2EF1EF6F2EF2E07F2EF02DAB
S11302E00F2EF4E0CF2EF2E0DF2EF02D0F2EF1EFE3
S11302F02F2EF2E03F2EF02D23010BEE12E07601BB
S113030060E070E0D801ED91FD918D01FE83ED83F5
S1130310D7018D909D90AD90BD907D01072E000C6E
S1130320880B990B86D569837A838B839C83ED81B3
S1130330FE81BF01FF0F880B990B7BD5A5019401AA
S11303402CD69B01AC0169817A818B819C816ED40E
S11303503DD502151305B1F6D2016D937C93B2E03D
S11303606B0E711CECE0CE0ED11CF4E3CF16F2E060
S1130370DF0609F0C1CFE9EFF2E001EF12E0D801A6
S11303802D913C914EE2429FC001439F900D112458
S113039029EF30E0B90164D66083D80112966D91DB
S11303A07C911397469FC001479F900D1124B9017A
S11303B057D66183D80114966D917C911597469F09
S11303C0C001479F900D1124B9014AD66283D80118
S11303D016966D917C911797469FC001479F900D8B
S11303E01124B9013DD663834EDF26960FB6F894E7
S11303F0DEBF0FBECDBFDF91CF911F910F91FF9054
S1130400EF90DF90CF90BF90AF909F908F907F90B0
S11304106F905F904F903F902F900895CF93DF930C
S1130420E6E8F2E088E290E0928B818B148A138AEA
S113043087E090E097878687C8ECD2E083E290E07B
S11304409F878E87A7EAB2E08DE290E01F969C9387
S11304508E931E9746E656E666E070E4458B568B0F
S1130460678B708F4AE057ED63E27DE3418F528FD3
S1130470638F748F40E050E060E072E4458F568FE4
S1130480678F70A340E050E060E870E44D8B5E8BB2
S11304906F8B788F46EA5BE964E47BE3498F5A8F7C
S11304A06B8F7C8F40E050E064EF73E44D8F5E8F80
S11304B06F8F78A34BE754E16EE27FE355964D933B
S11304C05D936D937C9358974DEC5CEC6CE47DE309
S11304D059964D935D936D937C935C9740E050E007
S11304E06EEA73E45D964D935D936D937C93909760
S11304F0E5E6F2E04AE959E969E17EE3458B568B8A
S1130500678B708F118E128E138E148E80E090E0A4
S1130510A0ECBFE3858F968FA78FB0A3E4E4F2E04D
S1130520458B568B678B708F118E128E138E148EA3
S1130530858F968FA78FB0A396DEDF91CF91089514
S11305404F925F926F927F928F929F92AF92BF92DF
S1130550CF92DF92EF92FF920F931F93CF93DF938B
S11305606C018B018CE392E000DE30D49B01772395
S113057024F422273327261B370BE9013093EA02A0
S11305802093E902D0927402C09273028091010216
S1130590882309F4EAC0309366022093650210921E
S11305A00102293C31050CF4BBC0C21AD30A0F2E38
S11305B0F5E6EF2EF2E0FF2EF02DF701D382C28292
S11305C0B6010D2C000C880B990B33D42B013C0184
S11305D0F701218D328D438D548DDFD4F7012285AF
S11305E033854485558522D34B015C01F70162872D
S11305F0738784879587EAD39B01772324F4222782
S11306003327261B370B2F3131054CF120E030E026
S1130610A901C501B401BDD418166CF480E090E0C2
S1130620A0EFB1E480936F0290937002A0937102E3
S1130630B093720214C020E030E0A901C501B401F6
S113064059D3882364F480E090E0A0EFB1EC809368
S11306506F0290937002A0937102B09372021C1403
S11306601D048CF50F2EF5E6EF2EF2E0FF2EF02D93
S1130670F701258936894789508DC301B2018DD48C
S1130680F7012285338544855585D0D24B015C0121
S1130690F701848195819E01281B390BB901330F21
S11306A0880B990BC6D3F701258D368D478D50A144
S11306B074D49B01AC01C501B401B7D287D3F7014F
S11306C07783668304C010926C0210926B02E5E695
S11306D0F2E0D583C483868197819C01992324F415
S11306E022273327281B390B2536310584F01816A9
S11306F019063CF484E690E090936C0280936B02BC
S113070006C08CE99FEF90936C0280936B028091FA
S11307106B0290916C029093EC028093EB0214C0F4
S1130720B901330F880B990B84D32DEC3CEC4CECC2
S11307305EE333D420E030E040EA51E477D246D39C
S11307407093EC026093EB020330110571F4EBEE4D
S1130750F2E08081918199231CF49195819591090E
S113076091958195910991838083EBEEF2E0138258
S113077012821582148298DDDF91CF911F910F911F
S1130780FF90EF90DF90CF90BF90AF909F908F90AD
S11307907F906F905F904F9008958FEF8093070143
S11307A0E8E0F1E080818D7F808387E690E0DFD010
S11307B089E190E0AFD132DE789462E070E08CEDB4
S11307C095E0BEDEFACFE8ECF2E01086118681E017
S11307D0808BE7EAF2E010861186808BE6E8F2E08F
S11307E010861186808BE5E6F2E010861186808BF8
S11307F0E4E4F2E010861186808B10923D021092A0
S11308003C028CE392E09EDC8CE392E0A6DC109246
S113081035021092340284E392E094DC84E392E0A3
S11308209CCC08951092B90088E48093B800089590
S113083094EA9093BC00ECEBF0E090819923ECF700
S11308409091B900987F983011F09031A1F4809381
S1130850BB0084E88093BC00ECEBF0E0808188234B
S1130860ECF79091B900987F983139F081E0903499
S113087029F480E0089581E0089580E0089584E9F2
S11308808093BC00ECEBF0E0808184FDFDCF089503
S11308908093BB0084E88093BC00ECEBF0E08081A3
S11308A08823ECF79091B900987F81E0983209F49D
S11308B080E008951F920F920FB60F9211240BB689
S11308C00F922F938F939F93EF93FF938091C00088
S11308D02091C6008871E091CE03EF5FEF71909193
S11308E0CD03E91739F0E093CE03F0E0EF52FC4F6B
S11308F0208301C082E08093CC03FF91EF919F910C
S11309008F912F910F900BBE0F900FBE0F901F90E1
S113091018951F920F920FB60F9211240BB60F92D7
S11309208F939F93EF93FF939091D0038091CF0384
S1130930981769F0E091CF03EF5FEF71E093CF0375
S1130940F0E0EF50FC4F80818093C60005C0E1ECDD
S1130950F0E080818F7D8083FF91EF919F918F9153
S11309600F900BBE0F900FBE0F901F901895109212
S1130970D0031092CF031092CE031092CD0399238B
S113098024F422E02093C0009F779093C5008093C5
S1130990C40088E98093C10086E08093C200089572
S11309A01F920F920FB60F9211240BB60F922F9332
S11309B08F939F93EF93FF938091C8002091CE0073
S11309C08871E0918903EF5FEF7190918803E917D3
S11309D039F0E0938903F0E0E457FC4F208301C031
S11309E082E080938703FF91EF919F918F912F91E4
S11309F00F900BBE0F900FBE0F901F9018951F9273
S1130A000F920FB60F9211240BB60F928F939F93F0
S1130A10EF93FF9390918B0380918A03981769F069
S1130A20E0918A03EF5FEF71E0938A03F0E0E4550D
S1130A30FC4F80818093CE0005C0E9ECF0E080811A
S1130A408F7D8083FF91EF919F918F910F900BBECB
S1130A500F900FBE0F901F9018951F920F920FB614
S1130A600F9211240BB60F922F938F939F93EF93B2
S1130A70FF938091D0002091D6008871E0914403C7
S1130A80EF5FEF7190914303E91739F0E09344036A
S1130A90F0E0E95BFC4F208301C082E080934203D5
S1130AA0FF91EF919F918F912F910F900BBE0F901B
S1130AB00FBE0F901F9018951F920F920FB60F92B2
S1130AC011240BB60F928F939F93EF93FF93909102
S1130AD0460380914503981769F0E0914503EF5F61
S1130AE0EF71E0934503F0E0E959FC4F8081809376
S1130AF0D60005C0E1EDF0E080818F7D8083FF9119
S1130B00EF919F918F910F900BBE0F900FBE0F909E
S1130B101F901895109246031092450310924403B7
S1130B2010924303992324F422E02093D0009F776A
S1130B309093D5008093D40088E98093D10086E017
S1130B408093D2000895209146032F5F2F719091D6
S1130B5045032917E1F3E22FF0E0E959FC4F8083C4
S1130B6020934603E1EDF0E0808180628083089564
S1130B701F920F920FB60F9211240BB60F922F9360
S1130B808F939F93EF93FF938091300120913601CF
S1130B908871E091FF02EF5FEF719091FE02E91717
S1130BA039F0E093FF02F0E0EE5FFC4F208301C0D8
S1130BB082E08093FD02FF91EF919F918F912F919D
S1130BC00F900BBE0F900FBE0F901F9018951F92A1
S1130BD00F920FB60F9211240BB60F928F939F931F
S1130BE0EF93FF939091010380910003981769F0AC
S1130BF0E0910003EF5FEF71E0930003F0E0EE5D3E
S1130C00FC4F80818093360105C0E1E3F1E08081EF
S1130C108F7D8083FF91EF919F918F910F900BBEF9
S1130C200F900FBE0F901F9018955058BB27AA27FE
S1130C300ED075C166D130F06BD120F031F49F3FF6
S1130C4011F41EF45BC10EF4E095E7FB51C1E92FEA
S1130C5077D180F3BA17620773078407950718F0F2
S1130C6071F49EF58FC10EF4E0950B2EBA2FA02DD2
S1130C700B01B90190010C01CA01A0011124FF2745
S1130C80591B99F0593F50F4503E68F11A16F04040
S1130C90A22F232F342F4427585FF3CF469537953F
S1130CA02795A795F0405395C9F77EF41F16BA0B04
S1130CB0620B730B840BBAF09150A1F0FF0FBB1FB2
S1130CC0661F771F881FC2F70EC0BA0F621F731FFB
S1130CD0841F48F4879577956795B795F7959E3F58
S1130CE008F0B3CF9395880F08F09927EE0F9795E6
S1130CF087950895D9D008F481E008950CD00FC1E8
S1130D0007D140F0FED030F021F45F3F19F0F0C07D
S1130D10511139C1F3C014D198F39923C9F3552360
S1130D20B1F3951B550BBB27AA27621773078407DA
S1130D3038F09F5F5F4F220F331F441FAA1FA9F390
S1130D4033D00E2E3AF0E0E830D091505040E69582
S1130D50001CCAF729D0FE2F27D0660F771F881FE3
S1130D60BB1F261737074807AB07B0E809F0BB0BD2
S1130D70802DBF01FF2793585F4F2AF09E3F5105F6
S1130D8068F0B6C000C15F3FECF3983EDCF3869593
S1130D9077956795B795F7959F5FC9F7880F911D6C
S1130DA09695879597F90895E1E0660F771F881F58
S1130DB0BB1F621773078407BA0720F0621B730B0B
S1130DC0840BBA0BEE1F88F7E095089504D068945D
S1130DD0B111D9C00895BCD088F09F5790F0B92FB5
S1130DE09927B751A0F0D1F0660F771F881F991F7C
S1130DF01AF0BA95C9F712C0B13081F0C3D0B1E08E
S1130E000895C0C0672F782F8827B85F39F0B93F9D
S1130E10CCF3869577956795B395D9F73EF490957D
S1130E208095709561957F4F8F4F9F4F0895E894FB
S1130E3009C097FB3EF490958095709561957F4F1E
S1130E408F4F9F4F9923A9F0F92F96E9BB279395CC
S1130E50F695879577956795B795F111F8CFFAF4DC
S1130E60BB0F11F460FF1BC06F5F7F4F8F4F9F4F0D
S1130E7016C0882311F096E911C0772321F09EE86B
S1130E80872F762F05C0662371F096E8862F70E0D1
S1130E9060E02AF09A95660F771F881FDAF7880FAB
S1130EA09695879597F90895990F0008550FAA0B01
S1130EB0E0E8FEEF16161706E807F907C0F0121669
S1130EC01306E407F50798F0621B730B840B950B6C
S1130ED039F40A2661F0232B242B252B21F40895C1
S1130EE00A2609F4A140A6958FEF811D811D08955E
S1130EF097F99F6780E870E060E008959FEF80ECC9
S1130F00089500240A94161617061806090608956B
S1130F1000240A9412161306140605060895092ED1
S1130F200394000C11F4882352F0BB0F40F4BF2B40
S1130F3011F460FF04C06F5F7F4F8F4F9F4F089580
S1130F4057FD9058440F551F59F05F3F71F0479576
S1130F50880F97FB991F61F09F3F79F0879508955B
S1130F60121613061406551FF2CF4695F1DF08C07A
S1130F70161617061806991FF1CF86957105610597
S1130F8008940895E894BB2766277727CB0197F93F
S1130F9008958ADF08F48FEF08950BD0C0CFB1DF36
S1130FA028F0B6DF18F0952309F0A2CFA7CF1124BB
S1130FB0EACFC6DFA0F3959FD1F3950F50E0551FFC
S1130FC0629FF001729FBB27F00DB11D639FAA279A
S1130FD0F00DB11DAA1F649F6627B00DA11D661FE9
S1130FE0829F2227B00DA11D621F739FB00DA11D0A
S1130FF0621F839FA00D611D221F749F3327A00DC4
S1131000611D231F849F600D211D822F762F6A2F5F
S113101011249F5750408AF0E1F088234AF0EE0FE4
S1131020FF1FBB1F661F771F881F91505040A9F7F1
S11310309E3F510570F05CCFA6CF5F3FECF3983E26
S1131040DCF3869577956795B795F795E7959F5F58
S1131050C1F7FE2B880F911D9695879597F90895F2
S113106097FB072E16F4009406D077FD08D00BD01A
S113107007FC05D03EF4909581959F4F0895709597
S113108061957F4F0895AA1BBB1B51E107C0AA1F9E
S1131090BB1FA617B70710F0A61BB70B881F991F15
S11310A05A95A9F780959095BC01CD010895EE0F4E
S11310B0FF1F881F8BBF0790F691E02D1994F894B9
S10510C0FFCF5C
S11310C201010101000080BF0000803F0000803F59
S11310D2000080BF000080BF0000803F0000803F0E
S11310E2000080BF0000803F0000803F0000803F7E
S10710F20000803F37
S9030000FC
