:1000000098C00000C7C00000C5C00000F5C00000D7
:10001000C1C00000BFC0000016C10000BBC000008E
:10002000B9C000000C946E17B5C000000C94C01746
:10003000B1C00000AFC00000ADC00000C0C10000F2
:10004000A9C00000A7C00000A5C00000A3C0000018
:10005000A1C000009FC000009DC000001BC10000A7
:1000600099C000000C94691D0C94981D93C0000069
:1000700091C000008FC000008DC000008BC0000048
:1000800089C0000087C0000085C0000083C0000058
:100090000C94021E0C94311E7DC000007BC0000039
:1000A00079C0000077C0000075C0000073C0000078
:1000B00071C000006FC000006DC000006BC0000088
:1000C00069C0000067C0000065C000000C945F1E9E
:1000D0000C946F1E5FC000000C94CF1E0C94FE1E8B
:1000E00059C00000084AD73B3BCE016E84BCBFFD1F
:1000F000C12F3D6C74319ABD56833DDA3D00C77FF8
:1001000011BED9E4BB4C3E916BAAAABE0000008090
:100110003F05A84CCDB2D44EB93836A9020C50B91F
:10012000918688083CA6AAAA2ABE000000803F004B
:100130006D1811241FBECFEFD1E2DEBFCDBF00E0AE
:100140000CBF12E0A0E0B2E0E8EFF5E400E00BBF86
:1001500002C007900D92A238B107D9F725E0A2E8B6
:10016000B2E001C01D92A837B207E1F710E0C9E97B
:10017000D0E000E006C021970109802FFE010E9417
:10018000F222C839D10780E00807A9F70E94311888
:100190000C94FA2235CF789480E3809369008CE048
:1001A00080936A008DB384628DBB0895789485B581
:1001B000856085BD81E080936E000895CF93DF93C5
:1001C000EC0168817981072E000C880B990B0E9445
:1001D000DE202EEF34E346E353E40E94F72120E0D3
:1001E00030E048E453E40E9443206C837D838E8397
:1001F0009F83DF91CF9108951F920F920FB60F92B8
:1002000011240BB60F928F939F93EF93FF93009B54
:1002100008C0EAE8F2E080819181019691838083B1
:1002200007C0EAE8F2E080819181019791838083A1
:10023000FF91EF919F918F910F900BBE0F900FBE8A
:100240000F901F9018951F920F920FB60F921124C6
:100250000BB60F928F939F93EF93FF93059B08C06C
:10026000E2E8F2E08081918101969183808307C06A
:10027000E2E8F2E080819181019791838083FF9190
:10028000EF919F918F910F900BBE0F900FBE0F902B
:100290001F9018951F920F920FB60F9211248F93F3
:1002A00081E0809302028093040280930302809392
:1002B0000102809300028F910F900FBE0F901F904C
:1002C00018950E94CE1C8CE30E94D41C80E00E94F2
:1002D000411D80E70E94411D0E94FD1C8CE30E948D
:1002E000D41C81E00E94411D80EA0E94411D0E94B1
:1002F000FD1C8CE30E94D41C82E00E94411D80E022
:100300000E94411D0C94FD1C08958CE30E94D41C96
:1003100083E00E94411D0E94FD1C8DE30E94FB1C96
:100320000E94531D10927B0480937C040E94531DF5
:1003300020917B0430917C04282B30937C04209303
:100340007B040E94531D10927704809378040E94CE
:10035000531D2091770430917804282B3093780432
:10036000209377040E94531D1092790480937A049D
:100370000E945E1D2091790430917A04282B3093DD
:100380007A04209379040C94FD1C08952FB7F894F7
:100390006091730470917404809175049091760457
:1003A0002FBF0895E1EBF0E0808184608083E0E777
:1003B000F0E08081816080831092B20008951F92E6
:1003C0000F920FB60F9211248F939F93AF93BF9309
:1003D0008091730490917404A0917504B091760497
:1003E0000196A11DB11D8093730490937404A09392
:1003F0007504B093760480916F0490917004A0917D
:100400007104B09172040396A11DB11D80936F0415
:1004100090937004A0937104B093720480916F0460
:1004200090917004A0917104B09172048D37910580
:10043000A105B10538F180916F0490917004A091ED
:100440007104B09172048D579109A109B10980938B
:100450006F0490937004A0937104B0937204809120
:10046000730490917404A0917504B0917604019680
:10047000A11DB11D8093730490937404A09375041F
:10048000B0937604BF91AF919F918F910F900FBE63
:100490000F901F90189515DF86EF93E00E94FB18D0
:1004A00062E386EF93E00E94AE1A7CDF6FDF609319
:1004B000DA037093DB038093DC039093DD030895EC
:1004C0004F925F926F927F928F929F92AF92BF9264
:1004D000CF92DF92EF92FF920F931F93CF93DF9310
:1004E000CDB7DEB764970FB6F894DEBF0FBECDBFB1
:1004F00069837A838B839C8329013A01E98AFA8A8A
:100500000B8B1C8B0E9440206D877E878F87988B7A
:1005100069817A818B819C810E945A2269837A83C6
:100520008B839C83C301B2010E9440206D837E8334
:100530008F839887C301B2010E945A2269877A8704
:100540008B879C87A60195016D817E818F8198851F
:100550000E94F7212B013C0128A539A54AA55BA5DE
:1005600069857A858B859C850E94F7219B01AC016A
:10057000C301B2010E94751F2B013C01A601950128
:1005800069817A818B819C810E94F72129853A8536
:100590004B855C850E94F7214B015C01A801970106
:1005A0006D857E858F8598890E94F7219B01AC011E
:1005B000C501B4010E94751F4B015C0128A539A536
:1005C0004AA55BA569817A818B819C810E94F72174
:1005D0002D813E814F8158850E94F7219B01AC01FE
:1005E000C501B4010E94761F9058A30192010E9498
:1005F000E91F21EE3EE245E652E40E94F7210E9407
:10060000AB209B01772314F428593E4FC90164960F
:100610000FB6F894DEBF0FBECDBFDF91CF911F9113
:100620000F91FF90EF90DF90CF90BF90AF909F9091
:100630008F907F906F905F904F9008954F925F9250
:100640006F927F92AF92BF92CF92DF92EF92FF9222
:100650000F931F93CF93DF93CDB7DEB728970FB6D5
:10066000F894DEBF0FBECDBF6091790470917A041B
:10067000072E000C880B990B0E94DE205B016C0199
:1006800060917B0470917C04072E000C880B990B01
:100690000E94DE2069837A838B839C8325E33AEF73
:1006A0004EE85CE36091E2037091E3038091E40320
:1006B0009091E5030E94F7216D837E838F83988755
:1006C00025E33AEF4EE85CE36091E6037091E703BF
:1006D0008091E8039091E9030E94F7212B013C01EE
:1006E0006091770470917804072E000C880B990BA9
:1006F0000E94DE209F938F937F936F93E980FA800F
:100700000B811C812D813E814F815885C301B2012F
:10071000D7DE0F900F900F900F90BC0180E090E01B
:100720000E94DC202B013C012AE0298360E070E07C
:10073000CB01A30192010E94761F298121502983B8
:100740002111F7CF20E030E040E251E40E94432045
:1007500028960FB6F894DEBF0FBECDBFDF91CF91C4
:100760001F910F91FF90EF90DF90CF90BF90AF90CF
:100770007F906F905F904F900895CF92DF92EF92AD
:10078000FF920F931F93CF93DF93CDB7DEB72C97D4
:100790000FB6F894DEBF0FBECDBF66EF73E0CE019B
:1007A00001960E949C198CE0FE013196AEECB3E0FC
:1007B00001900D928A95E1F786EF93E00E94391C33
:1007C0000EEC13E0F801C084D184E284F3846081EC
:1007D000718182819381A70196010E94E91F21EE18
:1007E0003EE245E652E40E94F7216093F2037093E3
:1007F000F3038093F4039093F503F801648175810A
:1008000086819781A70196010E94E91F21EE3EE2B1
:1008100045E652E40E94F7216093EE037093EF03E4
:100820008093F0039093F10370DDB0DD0091DA0363
:100830001091DB032091DC033091DD036017710719
:100840008207930709F4F0C0A1DD6093DA03709387
:10085000DB038093DC039093DD03809154028823B3
:1008600091F18091F2039091F303A091F403B09180
:10087000F5038093E6039093E703A093E803B09316
:10088000E9038091EE039091EF03A091F003B09102
:10089000F1038093E2039093E303A093E403B09306
:1008A000E5038091EA039091EB03A091EC03B091F2
:1008B000ED038093DE039093DF03A093E003B093F6
:1008C000E1031092540286EF93E00E94921C2FE6FF
:1008D00032E143E85AE30E94F7212091E603309188
:1008E000E7034091E8035091E9030E94761F2BE74C
:1008F00034E14EE65FE30E94F7216B017C0129E2BF
:100900003CE54FE85DE36091F2037091F303809161
:10091000F4039091F5030E94F7219B01AC01C701FC
:10092000B6010E94761F6093E6037093E7038093FD
:10093000E8039093E90386EF93E00E949A1C2FE668
:1009400032E143E85AE30E94F7212091E20330911B
:10095000E3034091E4035091E5030E94761F2BE7E7
:1009600034E14EE65FE30E94F7216B017C0129E24E
:100970003CE54FE85DE36091EE037091EF038091F9
:10098000F0039091F1030E94F7219B01AC01C70194
:10099000B6010E94761F6093E2037093E303809395
:1009A000E4039093E5034ADE6093EA037093EB035C
:1009B0008093EC039093ED0386EF93E00E94A21CDA
:1009C0002FE632E143E85AE30E94F7212091DE034B
:1009D0003091DF034091E0035091E1030E94761FC4
:1009E0002DEC3CEC4CEC5DE30E94F7216B017C01AB
:1009F00026E636E646E65FE36091EA037091EB0394
:100A00008091EC039091ED030E94F7219B01AC01D2
:100A1000C701B6010E94761F6093DE037093DF0367
:100A20008093E0039093E1036091DE037091DF0314
:100A30008091E0039091E1030E94B020CB012C96BD
:100A40000FB6F894DEBF0FBECDBFDF91CF911F91DF
:100A50000F91FF90EF90DF90CF9008950F931F9329
:100A6000CF93DF93EDE2F3E088E290E0928B818B0D
:100A7000148A138A80E090E0A0EBB0E4858B968B1B
:100A8000A78BB08F118E128E138E148E80E090E0A3
:100A9000AAEFB3E4858F968FA78FB0A3ECE0F3E0C5
:100AA0008AE999E9A9E1BEE3858B968BA78BB08F84
:100AB000118E128E138E148E46E656E666E67FE39E
:100AC000458F568F678F70A3EBEEF2E0858B968B88
:100AD000A78BB08F118E128E138E148E80E090E053
:100AE000A0E8BFE3858F968FA78FB0A3AAECB2E0F2
:100AF0008DE290E01F969C938E931E97E9EAF2E0B8
:100B0000978786870AE919E929E93FE355960D9306
:100B10001D932D933C93589759961D921D921D92AB
:100B20001C925C9740E050E060E871E45D964D9364
:100B30005D936D937C939097058B168B278B308FED
:100B4000118E128E138E148E458F568F678F70A361
:100B5000A2DC1CDC6093CA037093CB038093CC03AC
:100B60009093CD03CDE2D3E011DC0091CA03109144
:100B7000CB032091CC033091CD03DC01CB01801B52
:100B8000910BA20BB30B843F9140A105B10548F432
:100B9000F4DD9093AF038093AE03188A9F878E870E
:100BA000E3CF0E94AA1CDF91CF911F910F9108956E
:100BB000E8E0F1E0908181E0892780831092AD0325
:100BC0001092AC031092AB031092AA030895CF9336
:100BD000DF938FE70E94BA1EC2ECD3E088810E94A7
:100BE000BA1E89810E94BA1E8A810E94BA1E8B8118
:100BF0000E94BA1EDF91CF9108950F931F93109218
:100C0000AB038091000183FF39C0639B3AC036C0BB
:100C10008091000183FF51C06CC08091000183FD71
:100C20006BC0639929C08091000183FF7DC080E083
:100C300091C0ACDB6093C6037093C7038093C80375
:100C40009093C90310925302A1DB0091C603109147
:100C5000C7032091C8033091C903AB01BC01401BFD
:100C6000510B620B730B81E0423051056105710538
:100C700008F070C080E06EC080E06CC06399C8CF9F
:100C800038C010922102EAEBF3E08EE190E091830C
:100C9000808313821282158214828CEE9FEF9783D9
:100CA00086831092C6031092C7031092C803109255
:100CB000C90381E080935302B4CF10922102EAEB82
:100CC000F3E084E190E091838083138212821582A5
:100CD000148282EE9FEF978386831092C603109250
:100CE000C7031092C8031092C90381E08093530296
:100CF00098CF639992CF95CF81E080932102E4EB66
:100D0000F3E028ED3FEF31832083138212821582B6
:100D100014821092C6031092C7031092C803109257
:100D2000C903809353027DCF10922102EAEBF3E0D6
:100D30008AE090E09183808313821282158214826C
:100D400086EF9FEF9783868380915302882309F46F
:100D50007BCF6FCF1F910F9108952F923F924F92AB
:100D60005F926F927F928F929F92AF92BF92CF923B
:100D7000DF92EF92FF920F931F93CF93DF9300D0F8
:100D800000D0CDB7DEB780910202882309F462C19A
:100D900080915602882309F461C1EFDC8C01EDE2F9
:100DA000F3E09183808386859785801B910B853B3B
:100DB00091053CF0885691409093300380932F0327
:100DC0000FC08C342FEF92072CF090933003809358
:100DD0002F0306C088599E4F9093300380932F03B2
:100DE00020902F0330903003B101032C000C880BAE
:100DF000990B0E94DE204B015C012091460330914B
:100E0000470340914803509149030E94F7212091E4
:100E10003703309138034091390350913A030E94CF
:100E2000761F6B017C0160933703709338038093C6
:100E3000390390933A0340913E0350913F035E8300
:100E40004D83BA01550F880B990B0E94DE206983F0
:100E50007A838B839C832DEC3CEC4CEC5DE30E940D
:100E6000F7212B013C01C701B6010E94AB209B0179
:100E7000772324F422273327261B370BB901330F9E
:100E8000880B990B0E94DE20A30192010E94EC21A5
:100E9000181624F520E030E0A901C701B6010E9430
:100EA000EC2118164CF440923703509238036092AC
:100EB000390370923A0312C02DEC3CEC4CEC5DEB24
:100EC00069817A818B819C810E94F721609337032D
:100ED000709338038093390390933A03C1010396CA
:100EE000079708F041C0C101332024F488279927CF
:100EF0008219930918161906BCF50F2EFDE2EF2E84
:100F0000F3E0FF2EF02DF701258936894789508DB2
:100F1000C501B4010E94F7214B015C01F7018481F6
:100F20009581B801681B790B072E000C880B990B73
:100F30000E94DE20F701258D368D478D50A10E943D
:100F4000F7219B01AC01C501B4010E94751FF70197
:100F500022853385448555850E94761F0E94AB20EB
:100F6000F701778366834CC0C101992324F4882755
:100F70009927821993090497DCF10F2EFDE2EF2ED9
:100F8000F3E0FF2EF02DF701658976898789908D32
:100F90009B01AC010E94F721A50194010E94F72159
:100FA0004B015C01F70184819581B801681B790BC5
:100FB000072E000C880B990B0E94DE20F701258D6F
:100FC000368D478D50A10E94F7219B01AC01C501D0
:100FD000B4010E94751FF70122853385448555852C
:100FE0000E94761F0E94AB20F7017783668308C0BA
:100FF000EDE2F3E0128613861486158617821682B8
:10100000EDE2F3E015830483868197819C019923A7
:1010100024F422273327281B390B4D815E81421788
:10102000530774F4481759072CF05195419551090D
:101030005E834D838D819E8190933403809333032F
:1010400080913303909134039093B9038093B80354
:101050001092020280915602811104C01092B903CD
:101060001092B80326960FB6F894DEBF0FBECDBF20
:10107000DF91CF911F910F91FF90EF90DF90CF9074
:10108000BF90AF909F908F907F906F905F904F90A8
:101090003F902F9008952F923F924F925F926F92C0
:1010A0007F928F929F92AF92BF92CF92DF92EF92F8
:1010B000FF920F931F93CF93DF9300D01F92CDB772
:1010C000DEB780912102882309F457C00F2EFAEB76
:1010D000CF2EF3E0DF2EF02D0F2EF3E24F2EF2E0B5
:1010E0005F2EF02D0F2EF2EC2F2EF3E03F2EF02D81
:1010F0000F2EFAEB6F2EF3E07F2EF02DDA82C982ED
:1011000004EB13E072011B821C82D8016D917D916A
:101110008D01F70181909190A190B1907F01072EF0
:10112000000C880B990B0E94DE20A50194010E94FF
:10113000F7214B015C012B813C81B901330F880BF6
:10114000990B0E94DE209B01AC01C501B4010E94F5
:10115000761F0E94AB207C836B8306151705A9F6CA
:10116000A981BA816D937C93F2E0CF0ED11C2CE063
:10117000420E511CC214D30409F6E2ECF3E0AAEBD0
:10118000B3E02D913C9147E1429FC001439F900DF8
:10119000112429EF30E0B9010E94CB2260836091D5
:1011A000BC037091BD03469FC001479F900D112461
:1011B000B9010E94CB2261836091BE037091BF038D
:1011C000469FC001479F900D1124B9010E94CB2278
:1011D00062836091C0037091C103469FC001479F25
:1011E000900D1124B9010E94CB226383F0DC0F9093
:1011F0000F900F900F90DF91CF911F910F91FF9063
:10120000EF90DF90CF90BF90AF909F908F907F90A6
:101210006F905F904F903F902F9008952F923F9244
:101220004F925F926F927F928F929F92AF92BF92F6
:10123000CF92DF92EF92FF920F931F93CF93DF93A2
:101240001C018B017A0181E0809321028AE892E0FF
:101250000E94DE000E94AB20AB01772324F44427D8
:101260005527461B570BEA015093B3034093B20333
:1012700030921B0320921A0320910102222309F4C9
:1012800055C11092AB031092AA0350930D034093E3
:101290000C0310920102483E83E058070CF4EAC0A8
:1012A000241A350A0F2EFCE0CF2EF3E0DF2EF02DAE
:1012B000F60133822282B101032C000C880B990BBA
:1012C0000E94DE202B013C01F601218D328D438DE1
:1012D000548D0E94F721F60122853385448555857A
:1012E0000E94761F4B015C01F60162877387848739
:1012F00095878089882319F0D583C483108AC50116
:10130000B4010E94AB209B01772324F422273327CA
:10131000261B370B2B3031055CF120E030E0A901B2
:10132000C501B4010E94EC2118166CF480E090E035
:10133000A0E2B1E48093160390931703A0931803DF
:10134000B093190315C020E030E0A901C501B40134
:101350000E943C20882364F480E090E0A0E2B1EC9D
:101360008093160390931703A0931803B093190367
:1013700012141304BCF50F2EFCE0CF2EF3E0DF2E89
:10138000F02DF601258936894789508DC301B201B8
:101390000E94F721F60122853385448555850E94F8
:1013A000761F4B015C01F60184819581BE01681BAB
:1013B000790B072E000C880B990B0E94DE20F6019A
:1013C000258D368D478D50A10E94F7219B01AC01E0
:1013D000C501B4010E94751F0E94AB20F6017783FE
:1013E000668304C01092130310921203ECE0F3E042
:1013F000D583C483868197819C01992324F4222775
:101400003327281B390BE216F30678F41816190651
:101410002CF4F0921303E092120307C0F194E194CC
:10142000F108F0921303E09212038091120390915D
:10143000130343968797A8F48091AD03882339F06E
:1014400084E190E090931303809312030AC080918B
:10145000AC03882331F08CEE9FEF909313038093BD
:10146000120380911203909113039093B50380931C
:10147000B40335C0809122028823C9F0BA01550F08
:10148000880B990B0E94DE202DEC3CEC4CEC5DE3CC
:101490000E94F72120E030E040E752E40E94761FEE
:1014A0000E94AB207093B5036093B40318C0BA01D7
:1014B000550F880B990B0E94DE202AE037ED43E29E
:1014C0005DE30E94F72120E030E040E752E40E9413
:1014D000761F0E94AB207093B5036093B403023073
:1014E000110551F481E08093AD031092AC0310928A
:1014F000AA031092AB031AC003301105B9F4E4EB50
:10150000F3E08081918199231CF491958195910953
:10151000919581959109918380831092AD0381E02B
:101520008093AC031092AB031092AA038091220225
:10153000882339F08CEE9FEF9093B7038093B60326
:1015400004C01092B7031092B60307DCDF91CF916D
:101550001F910F91FF90EF90DF90CF90BF90AF90D1
:101560009F908F907F906F905F904F903F902F90C3
:1015700008958F929F92AF92BF92CF92DF92EF9297
:10158000FF920F931F93CF93DF938C0181E08093A1
:1015900021028AE892E00E94DE006B017C018AE869
:1015A00092E00E94DE000E94AB209B01772324F48E
:1015B00022273327261B370B283E33401CF58AE8A9
:1015C00092E00E94DE000E94AB209B01772324F46E
:1015D00022273327261B370BB901330F880B990BB2
:1015E0000E94DE202CEE31E548EB5DE30E94F721FE
:1015F00020E030E040E752E40E94761F0E94AB20DA
:10160000EB0102C0C6E9D0E08AE892E00E94DE0069
:101610000E94AB209B01772324F422273327261B2B
:10162000370B213A3F403CF1C701B6010E94AB2085
:101630009B01772324F422273327261B370B6CE5E5
:1016400072E1621B730BAAF0072E000C880B990B3A
:101650000E94DE202DEC3CEC4CEC5DE30E94F72177
:101660000E94AB20EB016E3171052CF4CEE1D0E08D
:1016700002C0CEE1D0E0BE01DD0F880B990B0E94C5
:10168000DE206B017C01B801110F880B990B0E94C1
:10169000DE2025E33AEF4EE85CE30E94F7214B01A0
:1016A0005C010E9440209B01AC01C4EBD3E0C70168
:1016B000B6010E94F7210E94AB2079836883C5019F
:1016C000B4010E945A229B01AC01C701B6010E94DD
:1016D000F7210E94AB207B836A833FDBDF91CF91B0
:1016E0001F910F91FF90EF90DF90CF90BF90AF9040
:1016F0009F908F9008950E94B61E853638F0809195
:101700000A02803561F08A3071F404C0865F8093EC
:101710000A0208958AE080930A0280E0089580E535
:1017200080930A028AE508954F925F926F927F92AA
:10173000AF92BF92CF92DF92EF92FF920F931F93DF
:10174000CF93DF930F2EF2E7EF2EF2E0FF2EF02D76
:1017500000E913E0C0E0D0E0CC24C394D12C86B1E2
:1017600090E00C2E02C0959587950A94E2F780FFD1
:1017700010C0F801D182C0822091A903C6010C2EAD
:1017800002C0880F991F0A94E2F7822B8093A90365
:1017900003C0F80111821082F701819191917F01BC
:1017A000F801A190B1908F018A9DB0018B9D700DC1
:1017B0009A9D700D1124072E000C880B990B0E9426
:1017C000DE202091A4033091A5034091A6035091FF
:1017D000A7030E94761F2B013C016093A403709322
:1017E000A5038093A6039093A703B501BB0C880BB8
:1017F000990B0E94DE202091A0033091A10340911B
:10180000A2035091A3030E94761F6093A0037093DC
:10181000A1038093A2039093A3032196C830D1051E
:1018200009F09DCF9B01AC01C301B2010E9443208E
:101830000E94B0206093A8031092A4031092A50305
:101840001092A6031092A7031092A0031092A10376
:101850001092A2031092A303809109028A3039F4F6
:10186000611110C01092A803809309020DC0803549
:1018700049F4611107C08AE58093A80380E580934D
:10188000090202C0609309028091A803DF91CF9101
:101890001F910F91FF90EF90DF90CF90BF90AF908E
:1018A0007F906F905F904F9008958F929F92AF922C
:1018B000BF92CF92DF92EF92FF920F931F93CF933D
:1018C000DF938091DA02882359F015DF882341F0F5
:1018D00012DFEAECF2E090E095838483108AC7C0BF
:1018E00080910402882309F4C2C0809155028823A4
:1018F00009F4C1C000DFC82FD0E0EAECF2E0D183E8
:10190000C083668577856C1B7D0B7383628361154D
:10191000710531F41286138614861586D583C48327
:10192000072E000C880B990B0E94DE204B015C01F6
:101930000AEC12E0F801218D328D438D548D0E9406
:10194000F721F80122853385448555850E94761F4D
:101950006B017C01F80162877387848795870E94F9
:10196000AB209B01772324F422273327261B370B38
:10197000263031055CF120E030E0A901C701B60155
:101980000E94EC2118166CF480E090E0A0EAB0E42C
:101990008093D4029093D502A093D602B093D7023D
:1019A00015C020E030E0A901C701B6010E943C202B
:1019B000882364F480E090E0A0EAB0EC8093D40245
:1019C0009093D502A093D602B093D7020AEC12E00E
:1019D000F801258936894789508DC501B4010E94D7
:1019E000F721F80122853385448555850E94761FAD
:1019F0006B017C01F80184819581BE01681B790B24
:101A0000072E000C880B990B0E94DE20F801258D13
:101A1000368D478D50A10E94F7219B01AC01C70173
:101A2000B6010E94751F0E94AB209B01F8017783CD
:101A30006683D583C483AB01772324F444275527D9
:101A4000461B570B4135510584F0121613063CF422
:101A500080E590E09093D1028093D00206C080EBA5
:101A60009FEF9093D1028093D00210920302809155
:101A70005502811104C01092D1021092D002DF9160
:101A8000CF911F910F91FF90EF90DF90CF90BF907B
:101A9000AF909F908F9008958F929F92AF92BF9238
:101AA000CF92DF92EF92FF920F931F93CF93DF932A
:101AB0008091B902882351F037DE882339F034DE73
:101AC000E9EAF2E090E095838483108A8091040231
:101AD000882309F4C4C080915502882309F4C3C047
:101AE00023DEC82FD0E0E9EAF2E0D183C083668527
:101AF00077856C1B7D0B738362836115710541F4DF
:101B00001092B3021092B4021092B5021092B60273
:101B1000072E000C880B990B0E94DE204B015C0104
:101B200009EA12E0F801218D328D438D548D0E9417
:101B3000F721F80122853385448555850E94761F5B
:101B40006B017C01F80162877387848795870E9407
:101B5000AB209B01772324F422273327261B370B46
:101B6000263031055CF120E030E0A901C701B60163
:101B70000E94EC2118166CF480E090E0A0EAB0E43A
:101B80008093B3029093B402A093B502B093B602CF
:101B900015C020E030E0A901C701B6010E943C2039
:101BA000882364F480E090E0A0EAB0EC8093B30274
:101BB0009093B402A093B502B093B60209EA12E082
:101BC000F801258936894789508DC501B4010E94E5
:101BD000F721F80122853385448555850E94761FBB
:101BE0006B017C01F80184819581BE01681B790B32
:101BF000072E000C880B990B0E94DE20F801258D22
:101C0000368D478D50A10E94F7219B01AC01C70181
:101C1000B6010E94751F0E94AB209B01F8017783DB
:101C20006683D583C483AB01772324F444275527E7
:101C3000461B570B4135510584F0121613063CF430
:101C400080E590E09093B0028093AF0206C080EBF5
:101C50009FEF9093B0028093AF02109204028091A4
:101C60005502811104C01092B0021092AF02DF91B0
:101C7000CF911F910F91FF90EF90DF90CF90BF9089
:101C8000AF909F908F90089580910C02811108C0B1
:101C900080910B02823071F0833071F4A1E013C0A7
:101CA000813061F480910B02823051F0833051F425
:101CB000A3E009C0A0E007C0A4E005C0A4E003C001
:101CC000A2E001C0A4E0B0E0AA0FBB1FAA0FBB1F97
:101CD000A35FBD4FEAEBF3E062EC73E04D9120812E
:101CE00031814203C001439F900D11248193919350
:101CF000E617F70799F70895CF93DF93EC01109259
:101D00002102D3DDC9DE80910B028230F1F4809193
:101D1000D0029091D102EAEBF3E09C012C0F3D1F21
:101D2000318320839E01281B390B338322838091CA
:101D3000AF029091B0029E01280F391F3583248392
:101D4000C81BD90BD783C6831CC08091D002909149
:101D5000D102EAEBF3E09E01281B390B318320838B
:101D60008C0F9D1F938382838091AF029091B0026C
:101D70009E01281B390B35832483C80FD91FD783B5
:101D8000C68382DFDF91CF9108950F931F93EAEC12
:101D9000F2E00AE919E929E13FE3058B168B278B6D
:101DA000308F118E128E138E148E40E050E060E85A
:101DB00071E4458F568F678F70A3E9EAF2E0058BD7
:101DC000168B278B308F118E128E138E148E458FAB
:101DD000568F678F70A321E020930C0222E020939E
:101DE0000B028ADF1F910F9108952F923F924F921D
:101DF0005F926F927F928F929F92AF92BF92CF929B
:101E0000DF92EF92FF920F931F93CF93DF931C010A
:101E10008B017A01EAECF2E08AE999E9A9E9BFE3EA
:101E2000858B968BA78BB08F118E128E138E148E8E
:101E300080E090E0A0E8B1E4858F968FA78FB0A3F3
:101E400082E892E00E94DE000E94AB209B01772393
:101E500024F422273327261B370BE9013093B103E3
:101E60002093B0033092FA022092F902809100028E
:101E7000882309F40AC110920002283582E038074D
:101E80000CF4ADC00F2EFBEECF2EF2E0DF2EF02DC6
:101E9000F60131832083221A330A33822282B10170
:101EA000032C000C880B990B0E94DE202B013C01B7
:101EB000F601218D328D438D548D0E94F721F6015C
:101EC00022853385448555850E94761F4B015C0130
:101ED000F60162877387848795878089882319F044
:101EE000D583C483108AC501B4010E94AB209B0135
:101EF000772324F422273327261B370B2B30310579
:101F00005CF120E030E0A901C501B4010E94EC21A0
:101F100018166CF480E090E0A0E2B1E48093F50242
:101F20009093F602A093F702B093F80215C020E058
:101F300030E0A901C501B4010E943C20882364F46B
:101F400080E090E0A0E2B1EC8093F5029093F6027D
:101F5000A093F702B093F80212141304BCF50F2EED
:101F6000FBEECF2EF2E0DF2EF02DF601258936892B
:101F70004789508DC301B2010E94F721F6012285E5
:101F80003385448555850E94761F4B015C01F6011F
:101F900084819581BE01681B790B072E000C880B8C
:101FA000990B0E94DE20F601258D368D478D50A1BC
:101FB0000E94F7219B01AC01C501B4010E94751F6D
:101FC0000E94AB20F6017783668304C01092F20270
:101FD0001092F102D093F002C093EF0218C0B90141
:101FE000330F880B990B0E94DE202AE939E949E179
:101FF0005EE30E94F72120E030E040E752E40E94D7
:10200000761F0E94AB207093F2026093F1028091E0
:10201000F1029091F20299231CF491958195910916
:102020008E159F0520F0F092F202E092F10280916D
:10203000F1029091F2024396879730F484E190E0A8
:102040009093F2028093F10281E080930C020230BF
:10205000110561F48093AB031092AA031092AD03B3
:102060001092AC0382E080930B020FC00330110585
:1020700061F481E08093AA031092AB031092AD0348
:102080001092AC0383E080930B028091F102909157
:10209000F20232DEDF91CF911F910F91FF90EF900E
:1020A000DF90CF90BF90AF909F908F907F906F9078
:1020B0005F904F903F902F90089581E080930C02A5
:1020C00083E080930B02EAECF2E046E656E666EE29
:1020D0007FE3458B568B678B708F118E128E138E1C
:1020E000148E80E090E0A8ECB1E4858F968FA78FE6
:1020F000B0A3E9EAF2E0458B568B678B708F118EA7
:10210000128E138E148E858F968FA78FB0A380E0CA
:1021100090E0F2CD0895CF938091A8028111ABC0D9
:102120008091090186FD69C080919D0290919E0277
:10213000059709F062C054C080919D0290919E0263
:102140000697F9F48091080281115CC01AC0809151
:102150009D0290919E02059731F080919D02909191
:102160009E02069731F481E08093A60287E70E94E1
:10217000601F8091A802882321F08091A70281111D
:102180007FC080910702882399F08091090186FD24
:102190000FC08091090182FD0BC08091080281115E
:1021A00007C080919D0290919E02069709F43FC05E
:1021B0008091090182FF58C080919D0290919E02FA
:1021C000069709F051C08091080281114DC035C0B9
:1021D0001092A70281E08093A3021092A20250C045
:1021E0008FE60E94601F81E08093A8028093A40282
:1021F0001092990210929A023EC08091090186FFC6
:102200009BCFBFCF8FE60E94601F81E08093A80222
:102210001092A4028093A302809398028093990263
:1022200080939A02109296021092970224C08BE635
:102230000E94601F10920702BBCFC1E0C0939602BC
:10224000C093970210929402109295028AE60E941F
:10225000601FC093A702C093A602C093A802C093B8
:10226000A2021092A3020CC080919D0290919E0246
:10227000069731F4ADCF8091090186FD68CF7DCFFF
:10228000CF91089580919D0290919E02059731F023
:1022900080919D0290919E02069789F5809105029A
:1022A00090910602089759F53DC4809198028111DA
:1022B00009C08091090184FF3AC480917F04811193
:1022C00036C43EC4809197028823B9F0809196026B
:1022D000882399F08091090184FF4BC48091800488
:1022E000811147C43BC4109296021092970210923B
:1022F000930205C010DFE1DE02C00DDFDEDE80915B
:102300009C028111DDC520919D0230919E02232BFC
:1023100009F0D0C590917E04911130C490917F0452
:1023200091112CC4C7C57894E8E6F0E08081816003
:102330008083EBE6F0E080818061808328C120917A
:102340008204211108C020918104211104C0209130
:102350008004222389F1811132C048EC50E062E010
:1023600070E080E99AE10E940E0987E090E0909386
:102370000602809305028AE892E00E94DE000E9435
:10238000AB209B01772324F422273327261B370B0E
:10239000283C39410CF4FBC087E592E00E94F41D13
:1023A0007894E8E6F0E0808181608083EBE6F0E0FD
:1023B000808180618083EBC0882309F475C080919F
:1023C0009B02811138C081E090E090939E0280933F
:1023D0009D0210922202EDE2F3E080E090E0A0E0A6
:1023E000B0E4858B968BA78BB08F118E128E138ED7
:1023F000148E80E090E0A0EFB1E4858F968FA78FD8
:10240000B0A387E090E09093060280930502EBE68C
:10241000F0E080818F7E80837894E8E6F0E0808130
:1024200084608083EDE6F0E08081806880838EE1C7
:1024300090E0ABDCACC020919D0230919E02213037
:10244000310509F02EC52091050230910602273092
:10245000310509F026C580917E04811105C0809167
:102460007F04882309F41DC585E090E090939E02C7
:1024700080939D0288E60E94601F88E090E0909320
:10248000060280930502EDE6F0E080818F7780837D
:102490000E94D80512DE10928B0210928A021092CE
:1024A00083021092820273C020919D0230919E029D
:1024B0002130310509F06BC080919B02882309F41B
:1024C00066C091110DC080918204811109C0809174
:1024D0008104811105C080918004882309F457C0CC
:1024E0008091050290910602079709F050C078C3C9
:1024F00081E0809398028093990280939A0280935E
:102500009B0280939C028093080241C080918204C8
:102510008823B1F081E080939602809397028093A4
:1025200098028093990280939A0280939B028093F1
:102530009C028093A6028093A8028093A20231C0DD
:1025400080918104882391F081E0809396028093AA
:102550009702809398028093990280939A028093C5
:102560009B0280939C021092080211C0809180040B
:10257000882369F081E08093980280939902809388
:102580009A0280939B0280939C0280930802809120
:10259000A802882309F4A1C48091A602882309F423
:1025A0009CC48091A402882309F471C380919A028B
:1025B000811113C080919D0290919E020597F1F4C4
:1025C00031C37894E8E6F0E0808184608083EDE6B2
:1025D000F0E080818068808311C080919902811130
:1025E0000DC080919D0290919E02059739F48091D3
:1025F000050290910602079709F44FC380919D024E
:1026000090919E020297D9F4809105029091060262
:102610000897A9F45EC381E30E94601F1092A5028F
:102620000E94451F80939202873649F481E080938F
:10263000A1021092A40280E28093920205C08091D0
:10264000A102882309F449C080919A02882309F4E1
:1026500044C080919902811145C0EDE2F3E080E031
:1026600090E0A0E0B0E4858B968BA78BB08F118EA5
:10267000128E138E148E80E090E0A0EFB1E4858F6F
:10268000968FA78FB0A344E650E063E070E085E842
:1026900097E0ABDB87E090E0909306028093050221
:1026A00082E892E00E94DE000E94AB209B0177232B
:1026B00024F422273327261B370B203B34400CF40D
:1026C00075C07894E8E6F0E0808184608083EDE670
:1026D000F0E080818068808369C0809199028823BE
:1026E00009F4FEC28091050290910602079709F055
:1026F000F7C280919D0290919E02029709F0F0C26C
:10270000F4C280919802811144C0EDE2F3E080E0D0
:1027100090E0A0E0B0E4858B968BA78BB08F118EF4
:10272000128E138E148E80E090E0A0EFB1E4858FBE
:10273000968FA78FB0A344E650E062E070E084E398
:1027400098E00E940E0987E090E090930602809343
:1027500005028AE892E00E94DE000E94AB209B0105
:10276000772324F422273327261B370B2C363740B8
:10277000ECF07894E8E6F0E0808181608083EBE61D
:10278000F0E080818061808311C08091980288236D
:1027900069F08091050290910602079739F48091C3
:1027A0009D0290919E02059709F4C1C28091A302F7
:1027B000882309F443C080919702811143C0EDE260
:1027C000F3E080E090E0A0E0B0E4858B968BA78BEF
:1027D000B08F118E128E138E148E80E090E0A0EFD9
:1027E000B1E4858F968FA78FB0A387E090E0909398
:1027F00006028093050244E650E062E070E08EE954
:1028000097E0F3DA82E892E00E94DE000E94AB20BB
:102810009B01772324F422273327261B370B203BE9
:1028200034400CF17894E8E6F0E0808184608083A5
:10283000EDE6F0E080818068808315C0809197028A
:10284000882389F08091960281110DC080919D02AC
:1028500090919E02069739F48091050290910602AC
:10286000079709F486C280919D0290919E0203977A
:1028700019F580910502909106020897E9F495C236
:1028800082E30E94601F10928B0210928A021092C3
:102890008302109282021092A5020E94451F80932B
:1028A0009202873649F481E08093A0021092A2023E
:1028B00080E28093920205C08091A002882309F4EF
:1028C00048C080919702882309F443C08091960202
:1028D000811143C0EDE2F3E080E090E0A0E0B0E4DD
:1028E000858B968BA78BB08F118E128E138E148EC4
:1028F00080E090E0A0EFB1E4858F968FA78FB0A322
:1029000044E650E063E070E08EE997E06EDA87E03D
:1029100090E0909306028093050282E892E00E9484
:10292000DE000E94AB209B01772324F4222733276B
:10293000261B370B203B3440ECF07894E8E6F0E0BF
:10294000808184608083EDE6F0E080818068808310
:1029500011C080919602882369F0809105029091C0
:102960000602079739F480919D0290919E02039789
:1029700009F428C28091A202882309F44CC08091F6
:10298000950281114CC0EDE2F3E080E090E0A0E020
:10299000B0E4858B968BA78BB08F118E128E138E21
:1029A000148E80E090E0A0EFB1E4858F968FA78F22
:1029B000B0A385EB90E09787868746E950E062E018
:1029C00070E08EE194E111DA87E090E090930602E6
:1029D0008093050282E892E00E94DE000E94AB2014
:1029E0009B01772324F422273327261B370B203A19
:1029F0003F400CF43DC07894E8E6F0E080818460CC
:102A00008083EDE6F0E080818068808385E692E057
:102A10000E94F41D2DC080919502882349F1809178
:102A20009D0290919E02069709F04FC28091050287
:102A300090910602079709F048C2E7C1809105020C
:102A4000909106020897A1F4FEC18091A502811120
:102A500000C20E94451F80939202873649F481E0AC
:102A60008093A0021092A20280E28093920205C09D
:102A70008091A002882309F441C0809195028823A7
:102A8000E9F18091940281113EC0EDE2F3E080E033
:102A900090E0A0E0B0E4858B968BA78BB08F118E71
:102AA000128E138E148E80E090E0A0EFB1E4858F3B
:102AB000968FA78FB0A387E090E090930602809353
:102AC000050282E892E00E94DE000E94AB209B019A
:102AD000772324F422273327261B370B203A3F4045
:102AE0000CF4FBC17894E8E6F0E080818460808398
:102AF000EDE6F0E080818068808308958091940203
:102B0000882309F4EAC18091050290910602079793
:102B100009F0E3C180919D0290919E02049709F013
:102B2000DCC19DC1809199028111BFCBCBCB81E0EB
:102B30008093A4021092990210929A02ECDADFCBF1
:102B400085E090E090939E0280939D0281E08093C7
:102B50009F028093A8028093A602D1CB86E090E0EA
:102B600090939E0280939D0210920802D4DAA5DA17
:102B7000C6CB809108028111B6CBBCCBEDE2F3E06D
:102B800080E090E0A0E0B0E4858B968BA78BB08FBF
:102B9000118E128E138E148E80E090E0A0EFB1E4BF
:102BA000858F968FA78FB0A388E090E00E94B90A26
:102BB00087E090E090930602809305028AE892E015
:102BC0000E94DE000E94AB209B01772324F4222781
:102BD0003327261B370B203331410CF0A4CBD7CC45
:102BE000EDE6F0E080818F7780831092220286E00C
:102BF00090E090939E0280939D0288E090E09093F5
:102C00000602809305020E94D80510928B02109252
:102C10008A021092830210928202809183048111B1
:102C200067CC74CC87E090E0909306028093050215
:102C3000EDE2F3E080E090E0A0E0B0E4858B968BDD
:102C4000A78BB08F118E128E138E148E80E090E0C1
:102C5000A0EFB1E4858F968FA78FB0A344E650E034
:102C600062E070E08EE997E0C0D882E892E00E94CE
:102C7000DE000E94AB209B01772324F42227332718
:102C8000261B370B203436400CF09BCCB7CC809100
:102C90009A02882309F4B2CCA0CCEDE6F0E0808162
:102CA0008F7780830E94D80582E090E090939E0207
:102CB00080939D0210928B0210928A0210928302DE
:102CC0001092820288E090E09093060280930502C1
:102CD00095CCF3D98091A502882309F4A1CC9BCC93
:102CE00080919F0281110DCD50CDEDE6F0E0808105
:102CF0008F77808385E090E090939E0280939D0281
:102D00000E94D80510928B0210928A0210928302C0
:102D10001092820288E090E0909306028093050270
:102D20001092A8021092A6021092A1023FCD10921A
:102D30009F02EBE6F0E080818F7E80830E94D805C1
:102D400086E090E090939E0280939D0288E090E060
:102D5000909306028093050210928B0210928A02D1
:102D600010928302109282021092A8021092A60280
:102D70001DCD83E090E090939E0280939D02EDE64E
:102D8000F0E080818F77808310928B0210928A020C
:102D9000109283021092820288E090E090930602E3
:102DA000809305020E94D8055ECDE4EBF3E011822A
:102DB00010821382128281D98091A502882309F49E
:102DC0006CCD5ECD7AD9EDE6F0E080818F7780839F
:102DD0000E94D80510928B0210928A0210928302F0
:102DE0001092820286E090E090939E0280939D0272
:102DF00088E090E090930602809305021092A8026A
:102E00001092A6021092A002B5CDEDE6F0E080810E
:102E10008F7780830E94D80510928B0210928A02CD
:102E2000109283021092820288E090E09093060252
:102E3000809305021092A20284E090E090939E029B
:102E400080939D0215CE39D90E94FD058111FDCDDB
:102E500000CE83E30E94601F1092A502FACDEDE63A
:102E6000F0E080818F7780830E94D80510928B02DA
:102E700010928A02109283021092820286E090E001
:102E800090939E0280939D0288E090E090930602CA
:102E9000809305021092A8021092A6021092A0023E
:102EA000089520919D0230919E022130310509F054
:102EB0006ECB07CB90918304992309F440CA4DCA85
:102EC0009091830491117BCA3ACA80919D0290919E
:102ED0009E02049709F0CCCDB1CD08951F920F92B8
:102EE0000FB60F9211240BB60F922F933F934F936F
:102EF0005F936F937F938F939F93AF93BF93EF9362
:102F0000FF9380919C02811106C081E080939C0216
:102F100080937D0422C080919802811108C081E0D5
:102F20008093980280937D040E94D80516C08091FA
:102F30009302811112C081E0809393020E94D80510
:102F4000EBE6F0E080818F7E808310928B021092FE
:102F50008A021092830210928202FF91EF91BF9138
:102F6000AF919F918F917F916F915F914F913F9121
:102F70002F910F900BBE0F900FBE0F901F901895C2
:102F80001F920F920FB60F9211240BB60F922F9330
:102F90003F934F935F936F937F938F939F93AF93E1
:102FA000BF93EF93FF9380919B02811106C00E9413
:102FB000D80581E080939B0241C080919A028111E3
:102FC00008C081E08093A50280939A020E94D805F0
:102FD00035C080919902811106C081E080939902E9
:102FE0000E94D8052BC080919702811108C081E012
:102FF0008093A502809397020E94D8051FC08091FC
:103000009602811106C081E0809396020E94D80545
:1030100015C080919502811108C081E08093A502BE
:10302000809395020E94D80509C080919402811175
:1030300005C081E0809394020E94D805FF91EF9132
:10304000BF91AF919F918F917F916F915F914F91C0
:103050003F912F910F900BBE0F900FBE0F901F90BE
:103060001895AAE0B1E08C918F7B8C938C918F7E28
:103070008C93EBE0F1E080818064808380818061CB
:1030800080838C918B7F8C9380818B7F8083E1E028
:10309000F1E08081877F80836B98E2E0F1E08081BE
:1030A00088608083739AE7E0F1E0808181608083AB
:1030B000E8E0F1E080818E7F808387E690E066D54E
:1030C00089E190E03AD687E690E0C6D60E942E05C8
:1030D0007894D8D80E944B08FCCF86EF93E03DD07F
:1030E000EFE6F3E01086118681E0808BEEE4F3E0FA
:1030F00010861186808BEDE2F3E010861186808BBE
:10310000ECE0F3E010861186808BEBEEF2E01086A7
:103110001186808BEAECF2E010861186808BE9EA5A
:10312000F2E010861186808B10928B0210928A0238
:103130008AE892E00E94CB008AE892E00E94D600E2
:10314000109283021092820282E892E00E94CB00E9
:1031500082E892E00C94D6000895FC0114AE15AEFE
:1031600016AE17AEDC01A05CBF4F1D921D921D92E2
:103170001C92139714961D921D921D921C921397E8
:10318000D4961C92D0971D921D921D921C9213975B
:1031900014961D921D921D921C92139714961D92C7
:1031A0001D921D921C92139710AA11AA12AA13AA7B
:1031B00014AA15AA16AA17AA10AE11AE12AE13AE13
:1031C00094961D921D921D921C92139718974FE38F
:1031D0005EE16AEF7BE34D935D936D937C93139770
:1031E000E059FF4F80E49AEDAFE7B8E38083918325
:1031F000A283B38308952FEF82E597E021508040AA
:103200009040E1F700C0000080EDCED38BE639D4CA
:1032100080E037D4F2D380EDC7D389E132D489E19D
:1032200030D4EBD380EDC0D38AE12BD480E029D415
:10323000E4D380EDB9D38BE124D480E022D4DDD374
:1032400080EDB2D388E31DD481E01BD4D6D380EDCA
:10325000ABD38CE116D480E014D4CFC30895CF93C0
:10326000C62F80EDD3D38C2F0CD481EDC4D3CF9156
:103270000895AF92BF92CF92DF92EF92FF920F9399
:103280001F93CF93DF938C01EB016BE3CE01E7DF5C
:103290000AD4A82E08D4B82E06D4C82E04D4E82EFA
:1032A00002D4D82E0BD4F82E6B2D70E07A29072E7D
:1032B000000C880B990B82D7FE01E85BFF4F208141
:1032C00031814281538111D6688379838A839B83BC
:1032D0006E2D70E07C29072E000C880B990B6ED7A1
:1032E000FE01E45BFF4F2081318142815381FDD596
:1032F0006C837D838E839F836F2D70E07D29072EE5
:10330000000C880B990B5AD7688779878A879B8727
:1033100074D38CE0FE01D80101900D928A95E1F7FB
:10332000C801DF91CF911F910F91FF90EF90DF9037
:10333000CF90BF90AF900895AF92BF92CF92DF929F
:10334000EF92FF920F931F93CF93DF93CDB7DEB72A
:103350002C970FB6F894DEBF0FBECDBF5C018B017A
:10336000CE01019686DFF801E059FF4FC080D18081
:10337000E280F380A7019601F8016081718182816A
:1033800093810E94F721F801608F718F828F938F54
:10339000A701960164817581868197810E94F7213A
:1033A000F801648F758F868F978FA70196016085CE
:1033B0007185828593850E94F721F80160A371A32E
:1033C00082A393A38CE07896D50101900D928A9503
:1033D000E1F7C5012C960FB6F894DEBF0FBECDBF46
:1033E000DF91CF911F910F91FF90EF90DF90CF90E1
:1033F000BF90AF900895FF920F931F93CF93DF93E9
:103400008C01EB0163E4CE012ADF4DD3F82E4BD3C0
:103410006F2D70E0762F6627682B072E000C880B27
:10342000990BCCD66C877D878E879F873CD3F82EEF
:103430003AD36F2D70E0762F6627682B072E000C8D
:10344000880B990BBBD6688B798B8A8B9B8B2BD384
:10345000F82E34D36F2D70E0762F6627682B072E59
:10346000000C880B990BAAD66C8B7D8B8E8B9F8B57
:10347000C4D28CE0FE013C96D80101900D928A9551
:10348000E1F7C801DF91CF911F910F91FF9008954F
:10349000CF92DF92EF92FF921F93CF93DF93EC01D5
:1034A000162F662309F43BC0FC01E858FF4F8081CA
:1034B000811103C062E3CE0151D0612F70E080E042
:1034C00090E07CD66B017C019B01AC01FE01EC5AC3
:1034D000FF4F608171818281938189D768AB79AB1D
:1034E0008AAB9BABA7019601FE01E85AFF4F6081B2
:1034F0007181828193817BD76CAB7DAB8EAB9FABAF
:10350000A7019601FE01E45AFF4F6081718182811B
:1035100093816DD768AF79AF8AAF9BAF0CC018AA03
:1035200019AA1AAA1BAA1CAA1DAA1EAA1FAA18AE6B
:1035300019AE1AAE1BAECC58DF4F612F70E080E0A1
:1035400090E03AD6688379838A839B83DF91CF9119
:103550001F91FF90EF90DF90CF9008952F923F92B0
:103560004F925F926F927F928F929F92AF92BF9293
:10357000CF92DF92EF92FF920F931F93CF93DF933F
:10358000CDB7DEB7A4970FB6F894DEBF0FBECDBFA0
:103590001C01062FFC01E858FF4F81E08083662361
:1035A00009F487C010E0198E1A8E1B8E1C8E1D8A9E
:1035B0001E8A1F8A188E1D861E861F86188A19A2CB
:1035C0001AA21BA21CA21D8E1E8E1F8E18A2198A63
:1035D0001A8A1B8A1C8AB101CE0101960CDFF10107
:1035E0004484558466847784A301920169897A8929
:1035F0008B899C897BD4698B7A8B8B8B9C8BF1011B
:1036000080889188A288B388A50194016D8D7E8DF4
:103610008F8D98A16BD46D8F7E8F8F8F98A3F101C2
:10362000C488D588E688F788A701960169A17AA1A0
:103630008BA19CA15BD469A37AA38BA39CA3A301B8
:103640009201C301B201D3D69B01AC016D857E8589
:103650008F8598894BD46D877E878F87988BA5013E
:103660009401C501B401C3D69B01AC016D897E896B
:103670008F89988D3BD46D8B7E8B8F8B988FA70114
:103680009601C701B601B3D69B01AC01698D7A8D55
:103690008B8D9C8D2BD4698F7A8F8B8F9C8F8FE134
:1036A0009EE40197F1F700C000001F5F011393CF64
:1036B00018C0198E1A8E1B8E1C8E1D8A1E8A1F8A98
:1036C000188E1D861E861F86188A19A21AA21BA292
:1036D0001CA21D8E1E8E1F8E18A2198A1A8A1B8A82
:1036E0001C8A602F70E080E090E068D54B015C019F
:1036F0009B01AC0169897A898B899C89C4D46B014F
:103700007C01F10164AF75AF86AF97AFA50194015D
:103710006D8D7E8D8F8D98A1B6D42B013C01F1016A
:10372000E05CFF4F6083718382839383A5019401E2
:1037300069A17AA18BA19CA1A6D44B015C01F101E6
:10374000EC5BFF4F608371838283938320E030E0E2
:1037500048E452E46D857E858F85988994D4698B81
:103760007A8B8B8B9C8B20E030E048E452E46D85B3
:103770007E858F85988987D46D877E878F87988B84
:10378000A7019601C701B60132D69B01AC016D8538
:103790007E858F859889A9D397D6F101EC5AFF4F82
:1037A000608371838283938320E030E048E452E4B5
:1037B0006D897E898F89988D66D46B017C01A30108
:1037C0009201C301B20113D69B01AC01C701B6013E
:1037D0008CD37AD6F101E85AFF4F608371838283DC
:1037E000938320E030E048E452E4698D7A8D8B8D3C
:1037F0009C8D49D46B017C01A5019401C501B401E4
:10380000F6D59B01AC01C701B6016FD35DD6F101BE
:10381000E45AFF4F60837183828393837896C080DC
:10382000D180E280F38020E030E0A901C701B60139
:10383000D3D518162CF4C701B60192D4C10128DEE5
:10384000A4960FB6F894DEBF0FBECDBFDF91CF9127
:103850001F910F91FF90EF90DF90CF90BF90AF90AE
:103860009F908F907F906F905F904F903F902F90A0
:103870000895EF92FF920F931F93CF93DF93CDB7ED
:10388000DEB72C970FB6F894DEBF0FBECDBF8C010C
:10389000BC01CE010196AFDD780180E6E80EF11C97
:1038A00020E030E043E053E4F801648575858685C7
:1038B0009785E9D3F70160837183828393837801CD
:1038C000F4E6EF0EF11C20E030E043E053E4F801B1
:1038D0006089718982899389D6D3F7016083718366
:1038E000828393837801F8E6EF0EF11C20E030E04C
:1038F00043E053E4F8016489758986899789C3D3C5
:10390000F70160837183828393832C960FB6F894BA
:10391000DEBF0FBECDBFDF91CF911F910F91FF9002
:10392000EF900895805A9F4FFC01608171818281E0
:10393000938108958C599F4FFC0160817181828130
:103940009381089588599F4FFC0160817181828124
:10395000938108957899FECF799904C081E080938E
:10396000830408957A9904C081E0809382040895C5
:103970007B9904C081E08093810408957C9904C000
:1039800081E08093800408957D9904C081E0809354
:103990007F04089581E080937E0408951092B90019
:1039A00088E48093B800089594EA9093BC00ECEB0F
:1039B000F0E090819923ECF79091B900987F9830CE
:1039C00011F09031A1F48093BB0084E88093BC0097
:1039D000ECEBF0E080818823ECF79091B900987FC0
:1039E000983139F081E0903429F480E0089581E045
:1039F000089580E00895D8CF089584E98093BC00AD
:103A0000ECEBF0E0808184FDFDCF0895BF92CF9272
:103A1000DF92EF92FF920F931F93CF93DF93B82E15
:103A2000CCEBD0E009EB10E00F2EF4EADF2EF02D06
:103A30000F2EFBEBEF2EF12CF02D0F2EF4E8CF2EF6
:103A4000F02DD88288818823ECF7F8018081887F67
:103A50008830B9F7F701B082C88288818823ECF7F3
:103A6000F8018081887F883111F0C7DFEACFDF91CC
:103A7000CF911F910F91FF90EF90DF90CF90BF906B
:103A800008958093BB0084E88093BC00ECEBF0E0E9
:103A900080818823ECF79091B900987F81E098327B
:103AA00009F480E0089584EC8093BC00ECEBF0E036
:103AB00080818823ECF78091BB00089584E880938F
:103AC000BC00ECEBF0E080818823ECF78091BB0038
:103AD00008951F920F920FB60F9211240BB60F92FA
:103AE0002F938F939F93EF93FF938091C00020912A
:103AF000C6008871E0913405EF5FEF719091330556
:103B0000E91739F0E0933405F0E0E95CFA4F2083DF
:103B100001C082E080933205FF91EF919F918F91D8
:103B20002F910F900BBE0F900FBE0F901F90189506
:103B30001F920F920FB60F9211240BB60F928F9314
:103B40009F93EF93FF9390913605809135059817D9
:103B500069F0E0913505EF5FEF71E0933505F0E036
:103B6000E95AFA4F80818093C60005C0E1ECF0E08D
:103B700080818F7D8083FF91EF919F918F910F9036
:103B80000BBE0F900FBE0F901F9018951092360528
:103B9000109235051092340510923305992324F4C0
:103BA00022E02093C0009F779093C5008093C400CB
:103BB00088E98093C10086E08093C2000895209137
:103BC00036052F5F2F71909135052917E1F3E22F0C
:103BD000F0E0E95AFA4F808320933605E1ECF0E0FB
:103BE0008081806280830895CF93DF93EC01888188
:103BF000882329F02196E3DF89918111FCCFDF91A1
:103C0000CF9108951F920F920FB60F9211240BB609
:103C10000F922F938F939F93EF93FF938091C80000
:103C20002091CE008871E091EF04EF5FEF719091E9
:103C3000EE04E91739F0E093EF04F0E0EE50FB4FAB
:103C4000208301C082E08093ED04FF91EF919F916A
:103C50008F912F910F900BBE0F900FBE0F901F9062
:103C600018951F920F920FB60F9211240BB60F9258
:103C70008F939F93EF93FF939091F1048091F004C1
:103C8000981769F0E091F004EF5FEF71E093F004B2
:103C9000F0E0EE5EFA4F80818093CE0005C0E9EC43
:103CA000F0E080818F7D8083FF91EF919F918F91D4
:103CB0000F900BBE0F900FBE0F901F9018951F9284
:103CC0000F920FB60F9211248F938091D60080939C
:103CD00077058F910F900FBE0F901F9018951F9230
:103CE0000F920FB60F9211240BB60F928F939F93E2
:103CF000EF93FF939091CC048091CB04981769F0D7
:103D0000E091CB04EF5FEF71E093CB04F0E0E3537D
:103D1000FB4F80818093D60005C0E1EDF0E080810B
:103D20008F7D8083FF91EF919F918F910F900BBEBC
:103D30000F900FBE0F901F9018951092CC04109208
:103D4000CB041092CA041092C904992324F422E0EF
:103D50002093D0009F779093D5008093D40088E97A
:103D60008093D10086E08093D200089580917705FA
:103D700090E008952091CC042F5F2F719091CB0497
:103D80002917E1F3E22FF0E0E353FB4F8083209308
:103D9000CC04E1EDF0E080818062808308951F9281
:103DA0000F920FB60F9211240BB60F922F938F9391
:103DB0009F93EF93FF93809130012091360188719A
:103DC000E0918604EF5FEF7190918504E91739F077
:103DD000E0938604F0E0E757FB4F208301C082E0C8
:103DE00080938404FF91EF919F918F912F910F9079
:103DF0000BBE0F900FBE0F901F9018951F920F9241
:103E00000FB60F9211240BB60F928F939F93EF93DF
:103E1000FF939091880480918704981769F0E0914E
:103E20008704EF5FEF71E0938704F0E0E755FB4F05
:103E300080818093360105C0E1E3F1E080818F7DD0
:103E40008083FF91EF919F918F910F900BBE0F9008
:103E50000FBE0F901F90189510928804109287043F
:103E60001092860410928504992324F426E020936E
:103E700030019F77909335018093340188E98093D6
:103E8000310186E0809332010895909186048091FB
:103E90008504981791F0E0918504EF5FEF71E0934E
:103EA0008504F0E0E757FB4F20818091840490E087
:103EB000982F8827820F911D089580E091E0089542
:103EC000209188042F5F2F71909187042917E1F3C7
:103ED000E22FF0E0E755FB4F808320938804E1E375
:103EE000F1E080818062808308955058BB27AA2723
:103EF0000ED027C2F0D130F0F5D120F031F49F3F41
:103F000011F41EF4C0C10EF4E095E7FBB6C1E92F31
:103F10003AD280F3BA17620773078407950718F03F
:103F200071F49EF552C20EF4E0950B2EBA2FA02D1F
:103F30000B01B90190010C01CA01A0011124FF2756
:103F4000591B99F0593F50F4503E68F11A16F04051
:103F5000A22F232F342F4427585FF3CF4695379550
:103F60002795A795F0405395C9F77EF41F16BA0B15
:103F7000620B730B840BBAF09150A1F0FF0FBB1FC3
:103F8000661F771F881FC2F70EC0BA0F621F731F0C
:103F9000841F48F4879577956795B795F7959E3F69
:103FA00008F0B3CF9395880F08F09927EE0F9795F7
:103FB0008795089590D158F080E891E009F49EEF3C
:103FC00091D128F040E851E059F45EEF09C05BC19F
:103FD000FCC1E92FE078D7D168F3092E052AC1F397
:103FE000261737074807590738F00E2E07F8E0253F
:103FF00069F0E025E0640AC0EF6307F8009407FA6F
:10400000DB01B9019D01DC01CA01AD01EF934AD08A
:1040100098D10AD05F91552331F02BED3FE049E470
:1040200050FD49EC63CF0895DF93DD27B92FBF77AB
:1040300040E85FE31616170648075B0710F4D92F10
:10404000CFD19F938F937F936F937CD2E4EEF0E078
:104050001DD177D12F913F914F915F91D4D1DD2325
:1040600049F09058A2EA2AED3FE049EC5FE3D078AE
:104070005D274DDFDF9165C1DCD008F481E0089554
:1040800039D1E3956FC10CD05CC12CD140F023D164
:1040900030F021F45F3F19F0F0C0511197C1F3C027
:1040A00072D198F39923C9F35523B1F3951B550B9E
:1040B000BB27AA2762177307840738F09F5F5F4FFB
:1040C000220F331F441FAA1FA9F333D00E2E3AF03C
:1040D000E0E830D091505040E695001CCAF729D056
:1040E000FE2F27D0660F771F881FBB1F26173707A5
:1040F0004807AB07B0E809F0BB0B802DBF01FF27D5
:1041000093585F4F2AF09E3F510568F0B6C05EC1DC
:104110005F3FECF3983EDCF3869577956795B7950E
:10412000F7959F5FC9F7880F911D9695879597F929
:104130000895E1E0660F771F881FBB1F62177307A2
:104140008407BA0720F0621B730B840BBA0BEE1FB7
:1041500088F7E095089504D06894B11137C10895A7
:104160001AD188F09F5790F0B92F9927B751A0F036
:10417000D1F0660F771F881F991F1AF0BA95C9F7FB
:1041800012C0B13081F021D1B1E008951EC1672F76
:10419000782F8827B85F39F0B93FCCF386957795AB
:1041A0006795B395D9F73EF4909580957095619594
:1041B0007F4F8F4F9F4F0895E89409C097FB3EF4BF
:1041C00090958095709561957F4F8F4F9F4F992364
:1041D000A9F0F92F96E9BB279395F69587957795E2
:1041E0006795B795F111F8CFFAF4BB0F11F460FFA2
:1041F0001BC06F5F7F4F8F4F9F4F16C0882311F0FA
:1042000096E911C0772321F09EE8872F762F05C00D
:10421000662371F096E8862F70E060E02AF09A95A8
:10422000660F771F881FDAF7880F9695879597F99D
:104230000895990F0008550FAA0BE0E8FEEF161637
:104240001706E807F907C0F012161306E407F5078A
:1042500098F0621B730B840B950B39F40A2661F0FE
:10426000232B242B252B21F408950A2609F4A140A1
:10427000A6958FEF811D811D089597F99F6780E8AE
:1042800070E060E008959FEF80EC0895DF93CF9396
:104290001F930F93FF92EF92DF927B018C01689442
:1042A00005C0DA2EEF01AFD0FE01E894A59125916B
:1042B000359145915591AEF3EF0129DEFE0197014D
:1042C000A801DA9479F7DF90EF90FF900F911F919A
:1042D000CF91DF91089500240A9416161706180648
:1042E0000906089500240A941216130614060506FA
:1042F0000895C9CF50D0E8F3E894E0E0BB279F577A
:10430000F0F02AED3FE049EC06C0EE0FBB0F661F50
:10431000771F881F28F0B23A62077307840728F0D6
:10432000B25A620B730B840BE3959A9572F780383F
:1043300030F49A95BB0F661F771F881FD2F79048FD
:1043400006C1092E0394000C11F4882352F0BB0F10
:1043500040F4BF2B11F460FF04C06F5F7F4F8F4F9D
:104360009F4F0895EF93E0FF06C0A2EA2AED3FE0D9
:1043700049EC5FEBCCDDE5DF0F90039401FC905836
:10438000E1E1F1E0F7C057FD9058440F551F59F097
:104390005F3F71F04795880F97FB991F61F09F3F32
:1043A00079F087950895121613061406551FF2CF5B
:1043B0004695F1DF08C0161617061806991FF1CFAB
:1043C00086957105610508940895E894BB276627D2
:1043D0007727CB0197F908952CDF08F48FEF089524
:1043E0009B01AC0160E070E080E89FE34CCE0BD015
:1043F000A8CF71DF28F076DF18F0952309F03DCFC4
:1044000042CF1124E3CFBFDFA0F3959FD1F3950FE7
:1044100050E0551F629FF001729FBB27F00DB11D48
:10442000639FAA27F00DB11DAA1F649F6627B00DD8
:10443000A11D661F829F2227B00DA11D621F739FC1
:10444000B00DA11D621F839FA00D611D221F749FCF
:104450003327A00D611D231F849F600D211D822F16
:10446000762F6A2F11249F5750408AF0E1F088235D
:104470004AF0EE0FFF1FBB1F661F771F881F91506A
:104480005040A9F79E3F510570F0F7CE9FCF5F3F98
:10449000ECF3983EDCF3869577956795B795F7959D
:1044A000E7959F5FC1F7FE2B880F911D9695879525
:1044B00097F908959F931EDF0F9007FCEE5F52CF90
:1044C00011F40EF4E0CE41C066DFD0F39923D9F3A6
:1044D000CEF39F57550B87FF46D00024A0E640EA55
:1044E000900180585695979528F4805C660F771F49
:1044F000881F20F026173707480730F4621B730B1C
:10450000840B202931294A2BA6951794079420253E
:1045100031254A2758F7660F771F881F20F0261786
:104520003707480730F4620B730B840B200D311DE5
:10453000411DA09581F7B901842F9158880F969558
:10454000879508959B01AC0152CF9F3F31F0915068
:1045500020F4879577956795B795880F911D969567
:10456000879597F9089591505040660F771F881FDF
:10457000D2F708959F938F937F936F93FF93EF9359
:104580009B01AC0134DFEF91FF9180DE2F913F91D1
:104590004F915F912CCF97FB072E16F4009406D015
:1045A00077FD08D00BD007FC05D03EF4909581959F
:1045B0009F4F0895709561957F4F0895AA1BBB1B6F
:1045C00051E107C0AA1FBB1FA617B70710F0A61B13
:1045D000B70B881F991F5A95A9F780959095BC0134
:1045E000CD010895EE0FFF1F881F8BBF0790F69136
:0845F000E02D1994F894FFCFAF
:1045F8000101010101080001012D230707FFFF0147
:10460800010101FFFF01FFFF01FF0101FF000000A1
:10461800000101000080BF0000803F0000803F00D3
:104628000080BF000080BF0000803F0000803F0086
:104638000080BF0000803F0000803F0000803F00F6
:1046480000803F01010101696E74657272757074B2
:10465800206F6E0900696E74657272757074206FD0
:104668006E000A0014001E00280032003C004600BC
:024678005000F0
:00000001FF
