:1000000072C000009EC00000B0C00000D5C000005B
:10001000FAC000001FC1000094C0000092C00000A0
:1000200090C000008EC000008CC000008AC000009C
:1000300088C0000086C0000084C0000082C00000AC
:1000400080C000007EC000007CC000007AC00000BC
:1000500078C0000076C0000074C0000022C100001B
:1000600070C0000024C600006CC000006AC0000020
:1000700068C0000066C0000064C0000062C00000EC
:1000800060C000005EC000005CC000005AC00000FC
:100090001EC6000056C0000054C0000052C0000040
:1000A00050C000004EC000004CC000004AC000001C
:1000B00048C0000046C0000044C0000042C000002C
:1000C00040C000003EC000003CC0000010C6000060
:1000D00038C0000036C000001AC6000032C0000060
:1000E00030C00000590411241FBECFEFD1E2DEBFA3
:1000F000CDBF00E00CBF12E0A0E0B2E0E6EBF0E123
:1001000000E00BBF02C007900D92AE30B107D9F7E7
:1001100022E0AEE0B2E001C01D92AB36B207E1F7DB
:1001200010E0C3E7D0E000E005C021970109802F6F
:10013000FE0184D7C237D10780E00807B1F76ED33C
:10014000B8C75ECF78948FEF8093690083E0809387
:100150006A008DB38E618DBB0895789485B58560F6
:1001600085BD81E080936E0008951F920F920FB6B7
:100170000F9211240BB60F928F939F93EF93FF93DF
:10018000019B08C0EEE1F2E08081918101969183AC
:10019000808307C0EEE1F2E0808191810197918335
:1001A0008083FF91EF919F918F910F900BBE0F90E5
:1001B0000FBE0F901F9018951F920F920FB60F92BF
:1001C00011240BB60F928F939F93EF93FF93029B93
:1001D00008C0EAE1F2E080819181019691838083F9
:1001E00007C0EAE1F2E080819181019791838083E9
:1001F000FF91EF919F918F910F900BBE0F900FBECB
:100200000F901F9018951F920F920FB60F92112406
:100210000BB60F928F939F93EF93FF93039B08C0AE
:10022000E6E1F2E08081918101969183808307C0AD
:10023000E6E1F2E080819181019791838083FF91D3
:10024000EF919F918F910F900BBE0F900FBE0F906B
:100250001F9018951F920F920FB60F9211240BB694
:100260000F928F939F93EF93FF93049B08C0E2E15B
:10027000F2E08081918101969183808307C0E2E161
:10028000F2E080819181019791838083FF91EF91CA
:100290009F918F910F900BBE0F900FBE0F901F90EC
:1002A00018951F920F920FB60F9211240BB60F9252
:1002B0008F939F93EF93FF93EEE1F2E08081918122
:1002C0009383828311821082EAE1F2E0808191813E
:1002D0009383828311821082E6E1F2E08081918132
:1002E0009383828311821082E2E1F2E08081918126
:1002F0009383828311821082FF91EF919F918F915E
:100300000F900BBE0F900FBE0F901F901895CF93BC
:10031000DF93EC01688306D3CE01E8D360E070E0A0
:10032000CE0125D4DF91CF9108958F929F92AF9205
:10033000BF92CF92DF92EF92FF920F931F93CF93D2
:10034000DF930091200210912102CCE4D2E01983C6
:1003500008836091640270916502601B710B7D835C
:100360006C83072E000C880B990B79D54B015C012F
:1003700020915A0230915B0240915C0250915D02E3
:10038000FAD52E813F8148855985D2D46B017C01F5
:100390006E837F83888799872091040230910502BC
:1003A0004091060250910702C501B401E4D59B01BA
:1003B000AC01C701B601BCD46B017C018A859B8569
:1003C0009801281B390BB901330F880B990B47D5BE
:1003D00020910002309101024091020250910302EB
:1003E000CAD59B01AC01C701B601A1D405D57B8359
:1003F0006A831B870A872C853D85620F731FCB019B
:10040000772324F488279927861B970B8A3F910529
:100410002CF4709359026093580210C016161706F8
:100420003CF489EF90E0909359028093580206C003
:1004300087E09FEF90935902809358026091580291
:100440007091590281E192E092D3DF91CF911F9197
:100450000F91FF90EF90DF90CF90BF90AF909F9063
:100460008F9008958F929F92AF92BF92CF92DF921A
:10047000EF92FF920F931F93CF93DF9300911C0293
:1004800010911D02CEE3D2E01983088360916202CD
:1004900070916302601B710B7D836C83072E000CCF
:1004A000880B990BDCD44B015C0120915A023091EE
:1004B0005B0240915C0250915D025DD52E813F81CF
:1004C0004885598535D46B017C016E837F8388878D
:1004D00099872091040230910502409106025091C3
:1004E0000702C501B40147D59B01AC01C701B601A4
:1004F0001FD46B017C018A859B859801281B390BD1
:10050000B901330F880B990BAAD4209100023091C6
:10051000010240910202509103022DD59B01AC01D2
:10052000C701B60104D468D47B836A831B870A871A
:100530002C853D85620F731FCB01772324F4882718
:100540009927861B970B8A3F91052CF470934B02D9
:1005500060934A0210C0161617063CF489EF90E02B
:1005600090934B0280934A0206C087E09FEF9093DE
:100570004B0280934A0260914A0270914B0280E1E3
:1005800092E0F5D2DF91CF911F910F91FF90EF9004
:10059000DF90CF90BF90AF909F908F9008958F92F3
:1005A0009F92AF92BF92CF92DF92EF92FF920F9302
:1005B0001F93CF93DF930091180210911902C0E3AB
:1005C000D2E0198308836091600270916102601B20
:1005D000710B7D836C83072E000C880B990B3FD425
:1005E0004B015C0120915A0230915B0240915C0208
:1005F00050915D02C0D42E813F814885598598D3A2
:100600006B017C016E837F83888799872091040228
:10061000309105024091060250910702C501B401D4
:10062000AAD49B01AC01C701B60182D36B017C0146
:100630008A859B859801281B390BB901330F880BDC
:10064000990B0DD4209100023091010240910202D9
:100650005091030290D49B01AC01C701B60167D34E
:10066000CBD37B836A831B870A872C853D85620FEA
:10067000731FCB01772324F488279927861B970BB8
:100680008A3F91052CF470933D0260933C0210C0A8
:10069000161617063CF489EF90E090933D02809384
:1006A0003C0206C087E09FEF90933D0280933C029E
:1006B00060913C0270913D028FE092E058D2DF9150
:1006C000CF911F910F91FF90EF90DF90CF90BF904F
:1006D000AF909F908F9008958F929F92AF92BF920C
:1006E000CF92DF92EF92FF920F931F93CF93DF93FE
:1006F0000091140210911502C2E2D2E0198308831E
:1007000060915E0270915F02601B710B7D836C8350
:10071000072E000C880B990BA2D34B015C01209192
:100720005A0230915B0240915C0250915D0223D4E9
:100730002E813F8148855985FBD26B017C016E83F8
:100740007F83888799872091040230910502409128
:10075000060250910702C501B4010DD49B01AC0102
:10076000C701B601E5D26B017C018A859B859801A2
:10077000281B390BB901330F880B990B70D32091CB
:100780000002309101024091020250910302F3D322
:100790009B01AC01C701B601CAD22ED37B836A8309
:1007A0001B870A872C853D85620F731FCB0177233A
:1007B00024F488279927861B970B8A3F91052CF4F0
:1007C00070932F0260932E0210C0161617063CF489
:1007D00089EF90E090932F0280932E0206C087E06D
:1007E0009FEF90932F0280932E0260912E027091C2
:1007F0002F028EE092E0BBD1DF91CF911F910F913C
:10080000FF90EF90DF90CF90BF90AF909F908F9030
:1008100008958BDD27DEC3DE5FCF08957894E3D1A2
:10082000EED1FBD1CCEFDFEF0F2EFEE1AF2EF2E0E9
:10083000BF2EF02D0F2EFAE1CF2EF2E0DF2EF02D9D
:100840000F2EF6E1EF2EF2E0FF2EF02D02E112E086
:10085000D0936502C0936402D0936302C093620296
:10086000D0936102C0936002D0935F02C0935E0296
:10087000D0DFF50182819381E4D188E092E009D252
:10088000F60182819381DDD188E092E002D2F70106
:1008900082819381D6D188E092E0FBD1F8018281F8
:1008A0009381CFD188E092E0F4D18AE092E0F1D157
:1008B000CFCF10921F0210921E028EE192E042DC16
:1008C0008EE192E04ADC10921B0210921A028AE139
:1008D00092E038DC8AE192E040DC1092170210923C
:1008E000160286E192E02EDC86E192E036DC109280
:1008F00013021092120282E192E024DC82E192E083
:100900002CDC61E081E192E002DD62E080E192E0D6
:10091000FEDC63E08FE092E0FADC64E08EE092E0DF
:10092000F6CC0895FC0180818130F1F4E7E0F1E03C
:10093000808180648083808180688083EAE0F1E048
:10094000808180628083E0E2F1E080818A60808340
:10095000E1E2F1E080818A61808389EF90E0909309
:1009600027018093260108958230F1F4E7E0F1E059
:10097000808184608083808188608083EAE0F1E008
:10098000808188608083E0E2F1E0808182688083FA
:10099000E1E2F1E080818A61808389EF90E09093C9
:1009A00027018093260108958330F1F4E7E0F1E018
:1009B000808180618083808180628083EAE0F1E0D1
:1009C000808180618083E0E2F1E0808182628083C7
:1009D000E1E2F1E080818A61808389EF90E0909389
:1009E00027018093260108958430E9F4E7E0F1E0DF
:1009F000808181608083808182608083E1E0F1E09A
:100A0000808188608083E0EAF0E080818268808372
:100A1000E1EAF0E080818A61808389EF90E0909341
:100A2000A7008093A6000895FC018081823091F098
:100A300018F4813031F008958330A9F08430E1F06A
:100A40000895E8E0F1E080818064808380818F7781
:100A500080830895E8E0F1E0808184608083808174
:100A6000877F80830895E8E0F1E080818061808362
:100A700080818F7D80830895E8E0F1E0808181604E
:100A8000808380818D7F80830895FC018081823006
:100A900091F018F4813031F008958330A9F084305A
:100AA000E1F00895E8E0F1E080818F7B8083808130
:100AB000806880830895E8E0F1E080818B7F808307
:100AC0008081886080830895E8E0F1E080818F7EF6
:100AD00080838081806280830895E8E0F1E08081F6
:100AE0008E7F80838081826080830895FC01808175
:100AF0008230B1F018F4813031F008958330E9F09C
:100B0000843041F10895E8E0F1E080818F7B8083BB
:100B100080818F77808310922D0110922C0108958F
:100B2000E8E0F1E080818B7F80838081877F808314
:100B300010922901109228010895E8E0F1E08081E7
:100B40008F7E808380818F7D808310922B01109215
:100B50002A010895E8E0F1E080818E7F8083808122
:100B60008D7F80831092A9001092A80008950F93A2
:100B70001F93CF93DF938C01EB011C161D060CF421
:100B800053DFC93FD10544F4DD2344F4D195C19529
:100B9000D109C8017ADF02C0C9EFD0E0F801808135
:100BA000823071F018F4813031F018C0833069F070
:100BB000843081F013C0D0932D01C0932C010EC05E
:100BC000D0932901C093280109C0D0932B01C09371
:100BD0002A0104C0D093A900C093A800DF91CF914F
:100BE0001F910F9108951092C50089E18093C40070
:100BF00088E98093C10086E08093C2000895109236
:100C000066021092D50089E18093D40088E9809330
:100C1000D10086E08093D20008951092350189E1D9
:100C20008093340188E98093310186E0809332011A
:100C30000895E0ECF0E0908195FFFDCF8093C60031
:100C400008950F931F93CF93DF93CDB7DEB76497CB
:100C50000FB6F894DEBF0FBECDBF4AE0BE016F5F96
:100C60007F4FF4D18981882349F08E010E5F1F4F99
:100C7000E0DFF80181918F018111FACF64960FB600
:100C8000F894DEBF0FBECDBFDF91CF911F910F91C2
:100C90000895CF93DF93EC018881882329F0219672
:100CA000C8DF89918111FCCFDF91CF9108951F9208
:100CB0000F920FB60F9211248F938091C6008093EC
:100CC0006A028F910F900FBE0F901F9018951F9280
:100CD0000F920FB60F9211248F938091CE008093C4
:100CE00069028F910F900FBE0F901F9018951F9261
:100CF0000F920FB60F9211248F938091D60080939C
:100D000067028F910F900FBE0F901F9018951F9242
:100D10000F920FB60F9211248F938091360180931A
:100D200068028F910F900FBE0F901F90189550582A
:100D3000BB27AA270ED0E5C0D6D030F0DBD020F0FC
:100D400031F49F3F11F41EF4CBC00EF4E095E7FBA5
:100D5000C1C0E92FE7D080F3BA1762077307840791
:100D6000950718F071F49EF5FFC00EF4E0950B2E78
:100D7000BA2FA02D0B01B90190010C01CA01A001ED
:100D80001124FF27591B99F0593F50F4503E68F148
:100D90001A16F040A22F232F342F4427585FF3CF89
:100DA000469537952795A795F0405395C9F77EF45A
:100DB0001F16BA0B620B730B840BBAF09150A1F0A3
:100DC000FF0FBB1F661F771F881FC2F70EC0BA0F29
:100DD000621F731F841F48F4879577956795B795B1
:100DE000F7959E3F08F0B3CF9395880F08F09927A9
:100DF000EE0F97958795089504D06894B111B5C00A
:100E0000089598D088F09F5790F0B92F9927B7513F
:100E1000A0F0D1F0660F771F881F991F1AF0BA95BE
:100E2000C9F712C0B13081F09FD0B1E008959CC0E5
:100E3000672F782F8827B85F39F0B93FCCF38695B4
:100E400077956795B395D9F73EF490958095709511
:100E500061957F4F8F4F9F4F0895E89409C097FB8E
:100E60003EF490958095709561957F4F8F4F9F4F81
:100E70009923A9F0F92F96E9BB279395F6958795C5
:100E800077956795B795F111F8CFFAF4BB0F11F488
:100E900060FF1BC06F5F7F4F8F4F9F4F16C088232F
:100EA00011F096E911C0772321F09EE8872F762F65
:100EB00005C0662371F096E8862F70E060E02AF0A6
:100EC0009A95660F771F881FDAF7880F9695879592
:100ED00097F9089597F99F6780E870E060E00895BA
:100EE0009FEF80EC089500240A9416161706180642
:100EF0000906089500240A9412161306140605061E
:100F00000895092E0394000C11F4882352F0BB0FAE
:100F100040F4BF2B11F460FF04C06F5F7F4F8F4F11
:100F20009F4F089557FD9058440F551F59F05F3F4C
:100F300071F04795880F97FB991F61F09F3F79F0FB
:100F400087950895121613061406551FF2CF46957D
:100F5000F1DF08C0161617061806991FF1CF8695FF
:100F60007105610508940895E894BB2766277727E3
:100F7000CB0197F908950BD0C4CFB5DF28F0BADFC5
:100F800018F0952309F0A6CFABCF1124EECFCADF1E
:100F9000A0F3959FD1F3950F50E0551F629FF0018C
:100FA000729FBB27F00DB11D639FAA27F00DB11DE5
:100FB000AA1F649F6627B00DA11D661F829F22276E
:100FC000B00DA11D621F739FB00DA11D621F839FF5
:100FD000A00D611D221F749F3327A00D611D231FCB
:100FE000849F600D211D822F762F6A2F11249F5719
:100FF00050408AF0E1F088234AF0EE0FFF1FBB1F3C
:10100000661F771F881F91505040A9F79E3F5105DA
:1010100070F060CFAACF5F3FECF3983EDCF386958B
:1010200077956795B795F795E7959F5FC1F7FE2B85
:10103000880F911D9695879597F90895EE0FFF1FDC
:10104000881F8BBF0790F691E02D1994BB274A307B
:1010500031F4992322F4BDE2909581959F4F01C010
:10106000BB27FB015527AA27880F991FAA1FA41782
:1010700010F0A41B83955051B9F7A05DAA3308F076
:10108000A95DA193009779F7B111B1931192CB01AA
:1010900000C0DC01FC01672F71917723E1F73297E3
:1010A00004C07C916D9370836291AE17BF07C8F343
:0610B0000895F894FFCF43
:0E10B600333303410AD7633F09000D0A0000DF
:00000001FF
