:1000000072C00000D3C00000F8C000001DC1000095
:1000100042C1000067C100008CC1000095C0000013
:1000200093C0000091C000008FC000008DC0000090
:100030008BC0000089C0000087C0000085C00000A0
:1000400083C0000081C000007FC000007DC00000B0
:100050007BC0000079C0000077C0000091C10000A3
:1000600073C000000C94010E6FC000006DC0000052
:100070006BC0000069C0000067C0000065C00000E0
:1000800063C0000061C000005FC000005DC00000F0
:100090000C94110E59C0000057C0000055C000005C
:1000A00053C0000051C000004FC000004DC0000010
:1000B0004BC0000049C0000047C0000045C0000020
:1000C00043C0000041C000003FC000000C94210E5E
:1000D0003BC0000039C000000C94310E35C0000058
:1000E00033C00000860B11241FBECFEFD1E2DEBF6C
:1000F000CDBF00E00CBF12E0A0E0B2E0EAEDF0E21C
:1001000000E00BBF02C007900D92A635B107D9F7EA
:1001100023E0A6E5B2E001C01D92AB31B207E1F7E2
:1001200010E0C3E7D0E000E006C021970109802F6E
:10013000FE010E943010C237D10780E00807A9F7FE
:100140000E948D0A0C946B105BCF78948FEF809394
:1001500069008FE080936A008DB38F638DBB089533
:10016000789485B5856085BD81E080936E000895A3
:10017000CF93DF93EC0168817981072E000C880B07
:10018000990B0E94410F2EEF34E346E353E40E94A3
:10019000CD0F20E030E048E453E40E94A60E6C83CB
:1001A0007D838E839F83DF91CF9108951F920F925D
:1001B0000FB60F9211240BB60F928F939F93EF936C
:1001C000FF93009B08C0EBE7F2E0808191810196EC
:1001D0009183808307C0EBE7F2E0808191810197F2
:1001E00091838083FF91EF919F918F910F900BBE30
:1001F0000F900FBE0F901F9018951F920F920FB681
:100200000F9211240BB60F928F939F93EF93FF934E
:10021000019B08C0E3E7F2E0808191810196918320
:10022000808307C0E3E7F2E08081918101979183A9
:100230008083FF91EF919F918F910F900BBE0F9054
:100240000FBE0F901F9018951F920F920FB60F922E
:1002500011240BB60F928F939F93EF93FF93029B02
:1002600008C0EBE6F2E08081918101969183808362
:1002700007C0EBE6F2E08081918101979183808352
:10028000FF91EF919F918F910F900BBE0F900FBE3A
:100290000F901F9018951F920F920FB60F92112476
:1002A0000BB60F928F939F93EF93FF93039B08C01E
:1002B000E3E6F2E08081918101969183808307C01B
:1002C000E3E6F2E080819181019791838083FF9141
:1002D000EF919F918F910F900BBE0F900FBE0F90DB
:1002E0001F9018951F920F920FB60F9211240BB604
:1002F0000F928F939F93EF93FF93049B08C0EBE5BE
:10030000F2E08081918101969183808307C0EBE5C3
:10031000F2E080819181019791838083FF91EF9139
:100320009F918F910F900BBE0F900FBE0F901F905B
:1003300018951F920F920FB60F9211240BB60F92C1
:100340008F939F93EF93FF93069B08C0E3E8F2E03F
:100350008081918101969183808307C0E3E8F2E078
:1003600080819181019791838083FF91EF919F918B
:100370008F910F900BBE0F900FBE0F901F9018958E
:100380001F920F920FB60F9211240BB60F928F93FC
:100390009F93EF93FF93E3E7F2E080819181938352
:1003A000828311821082EBE6F2E080819181938357
:1003B000828311821082E3E6F2E08081918193834F
:1003C000828311821082EBE5F2E080819181938338
:1003D000828311821082FF91EF919F918F910F90F4
:1003E0000BBE0F900FBE0F901F901895CF93DF9309
:1003F000EC0168830E94E30BCE010E94C70C60E011
:1004000070E0CE010E94080DDF91CF9108950F9307
:100410001F93CF93DF93EB01009709F075C083E83A
:1004200092E0A6DE0E940E0F9B01772324F4222780
:100430003327261B370BB9013093F3022093F202C6
:100440000091F6021091F702021B130B1093F102B8
:100450000093F002101611060CF0D1C0283E334074
:10046000ECF4072E000C880B990B0E94410F2FE82B
:1004700032EC45EF5DE30E94CD0F20E030E040EF2D
:1004800051E40E94420E0E940E0F7093F902609395
:10049000F8028091EF02882351F109C086E990E0CB
:1004A0009093F9028093F80281E08093EF020C3D73
:1004B00085E01807E4F4B801110F880B990B0E942E
:1004C000410F2DEC3CEC4CEC5DE30E94CD0F0E9403
:1004D0000E0F683271052CF07093F9026093F802E8
:1004E00006C088E290E09093F9028093F802229788
:1004F00009F485C0E8EFF2E08081918191958195C2
:100500009109918380837BC0019709F078C08BE7C4
:1005100092E02EDE0E940E0F9B01772324F4222707
:100520003327261B370BB9013093F3022093F202D5
:100530000091F4021091F502021B130B1093F102CB
:100540000093F002101611060CF059C0283E83E00B
:100550003807CCF4072E000C880B990B0E94410F32
:100560002FE832EC45EF5DE30E94CD0F20E030E054
:1005700040EF51E40E94420E0E940E0F7093FB0266
:100580006093FA020DC0293E334054F086E990E0B2
:100590009093FB028093FA0281E08093EF0204C003
:1005A0008091EF02882301F10C3D85E01807E4F407
:1005B000B801110F880B990B0E94410F2DEC3CECF8
:1005C0004CEC5DE30E94CD0F0E940E0F6832710566
:1005D0002CF07093FB026093FA0206C088E290E070
:1005E0009093FB028093FA02229749F0E8EFF2E041
:1005F0008281938191958195910993838283DF9183
:10060000CF911F910F9108952F923F924F925F9239
:100610006F927F928F929F92AF92BF92CF92DF9212
:10062000EF92FF920F931F93CF93DF9300D01F920F
:10063000CDB7DEB70F2EFEEF8F2EF2E09F2EF02DFE
:100640000F2EF2E1EF2EF2E0FF2EF02D0F2EFEEF37
:100650002F2EF2E03F2EF02D340127017A8269829D
:100660000F2EF8EFAF2EF2E0BF2EF02D8201C12C3D
:10067000D12CE12CF12CBC82AB82EB81FC8161910D
:100680007191FC83EB83F80181909190A190B190DE
:100690008F01072E000C880B990B0E94410FA501BA
:1006A00094010E94CD0F9B01AC016C2D7D2D8E2DF0
:1006B0009F2D0E94420EC62ED72EE82EF92E8B813A
:1006C0009C8182159305C9F68C2D9D2DAE2DBF2DD5
:1006D000E981FA8180839183A283B383F4E06F0E72
:1006E000711C8CE0480E511C9EE0691693E079065F
:1006F00009F0B4CF0EEF12E020E030E048EB51E417
:10070000F80160817181828193810E94CD0F20E088
:1007100030E049E753E40E94A60E0E940E0F70934A
:1007200015036093140320E030E048EB51E4F80136
:1007300064817581868197810E94CD0F20E030E031
:1007400049E753E40E94A60E0E940E0F7093130314
:100750006093120320E030E048EB51E4F80160853B
:100760007185828593850E94CD0F20E030E049E7B6
:1007700053E40E94A60E0E940E0F70931103609323
:10078000100320E030E048EB51E4F8016485758502
:10079000868597850E94CD0F20E030E049E753E43D
:1007A0000E94A60E0E940E0F70930F0360930E031B
:1007B0000F900F900F900F90DF91CF911F910F919D
:1007C000FF90EF90DF90CF90BF90AF909F908F9071
:1007D0007F906F905F904F903F902F9008954F9231
:1007E0005F926F927F928F929F92AF92BF92CF92C1
:1007F000DF92EF92FF920F931F93CF93DF938B01C2
:100800009093F7028093F60280914202882309F4C4
:1008100087C0CFECD2E01D861C868BE792E0A8DC77
:100820000E940E0F6B017C01798368836C857D8546
:100830006C197D097B836A83072E000C880B990B4A
:100840000E94410F2B013C012091EB023091EC0200
:100850004091ED025091EE020E94CD0F288539851E
:100860004A855B850E94420E4B015C01688779874F
:100870008A879B8720910E0230910F0240911002CF
:1008800050911102C301B2010E94CD0F9B01AC0136
:10089000C501B4010E94420E4B015C018C819D8117
:1008A000B601681B790B072E000C880B990B0E9470
:1008B000410F20910A0230910B0240910C0250919D
:1008C0000D020E94CD0F9B01AC01C501B4010E9435
:1008D000410E0E940E0F7F836E83719561957109A1
:1008E0007093FB026093FA02CB01772324F48827EC
:1008F0009927861B970B8997BCF077233CF488EDEA
:100900009FEF9093FB028093FA020EC01616170613
:100910005CF488E290E09093FB028093FA0204C0BA
:100920001092FB021092FA02B80180E090E06FDDB5
:100930001092FD021092FC0267DEDF91CF911F91B1
:100940000F91FF90EF90DF90CF90BF90AF909F906E
:100950008F907F906F905F904F9008954F925F922D
:100960006F927F928F929F92AF92BF92CF92DF92BF
:10097000EF92FF920F931F93CF93DF938B0190938E
:10098000F5028093F40280914202882309F486C024
:10099000CDEDD2E01D861C8683E892E0E9DB0E9463
:1009A0000E0F6B017C01798368836C857D856C19E2
:1009B0007D097B836A83072E000C880B990B0E94AC
:1009C000410F2B013C012091EB023091EC02409150
:1009D000ED025091EE020E94CD0F288539854A859F
:1009E0005B850E94420E4B015C01688779878A878C
:1009F0009B8720910E0230910F024091100250917E
:100A00001102C301B2010E94CD0F9B01AC01C501CF
:100A1000B4010E94420E4B015C018C819D81B601A4
:100A2000681B790B072E000C880B990B0E94410F55
:100A300020910A0230910B0240910C0250910D025C
:100A40000E94CD0F9B01AC01C501B4010E94410E73
:100A50000E940E0F9B017F836E837093F902609357
:100A6000F802AB01772324F444275527461B570B84
:100A700049325105BCF033233CF488ED9FEF90934D
:100A8000F9028093F8020EC0121613065CF488E295
:100A900090E09093F9028093F80204C01092F9025A
:100AA0001092F802B80181E090E0B1DC1092FD02F2
:100AB0001092FC02A9DDDF91CF911F910F91FF9061
:100AC000EF90DF90CF90BF90AF909F908F907F90EE
:100AD0006F905F904F9008958F929F92AF92BF92C8
:100AE000CF92DF92EF92FF920F931F93CF93DF93FA
:100AF0000091750210917602CDEBD2E01983088344
:100B00006091140370911503601B710B7D836C83DE
:100B1000072E000C880B990B0E94410F4B015C01C2
:100B20002091CB023091CC024091CD025091CE0267
:100B30000E94CD0F2E813F81488559850E94420E2B
:100B40006B017C016E837F838887998720910602E1
:100B5000309107024091080250910902C501B40189
:100B60000E94CD0F9B01AC01C701B6010E94420E4D
:100B70006B017C018A859B859801281B390BB90183
:100B8000330F880B990B0E94410F20910202309184
:100B9000030240910402509105020E94CD0F9B0177
:100BA000AC01C701B6010E94410E0E940E0F7B836B
:100BB0006A831B870A872C853D85620F731FCB01D3
:100BC000772324F488279927861B970B8A3F910562
:100BD0002CF47093CA026093C90210C0161617064F
:100BE0003CF489EF90E09093CA028093C90206C05A
:100BF00087E09FEF9093CA028093C9026091C90277
:100C00007091CA028AE592E003D7DF91CF911F91DC
:100C10000F91FF90EF90DF90CF90BF90AF909F909B
:100C20008F9008958F929F92AF92BF92CF92DF9252
:100C3000EF92FF920F931F93CF93DF9300916D027A
:100C400010916E02CFEAD2E01983088360911203FB
:100C500070911303601B710B7D836C83072E000C56
:100C6000880B990B0E94410F4B015C012091CB0234
:100C70003091CC024091CD025091CE020E94CD0F16
:100C80002E813F8148855985FDD76B017C016E839C
:100C90007F838887998720910602309107024091CF
:100CA000080250910902C501B4010E94CD0F9B01B9
:100CB000AC01C701B601E6D76B017C018A859B8533
:100CC0009801281B390BB901330F880B990B0E942F
:100CD000410F209102023091030240910402509191
:100CE00005020E94CD0F9B01AC01C701B601C9D717
:100CF0000E940E0F7B836A831B870A872C853D85A4
:100D0000620F731FCB01772324F488279927861B52
:100D1000970B8A3F91052CF47093BC026093BB0241
:100D200010C0161617063CF489EF90E09093BC02B1
:100D30008093BB0206C087E09FEF9093BC02809334
:100D4000BB026091BB027091BC0289E592E060D663
:100D5000DF91CF911F910F91FF90EF90DF90CF9097
:100D6000BF90AF909F908F9008958F929F92AF9277
:100D7000BF92CF92DF92EF92FF920F931F93CF9388
:100D8000DF930091650210916602C1EAD2E01983F7
:100D900008836091100370911103601B710B7D83B8
:100DA0006C83072E000C880B990B0E94410F4B019E
:100DB0005C012091CB023091CC024091CD02509148
:100DC000CE020E94CD0F2E813F81488559855AD78A
:100DD0006B017C016E837F8388879987209106024F
:100DE000309107024091080250910902C501B401F7
:100DF0000E94CD0F9B01AC01C701B60143D76B0127
:100E00007C018A859B859801281B390BB901330F1A
:100E1000880B990B0E94410F20910202309103022E
:100E200040910402509105020E94CD0F9B01AC013C
:100E3000C701B60126D7F2D77B836A831B870A874F
:100E40002C853D85620F731FCB01772324F48827FF
:100E50009927861B970B8A3F91052CF47093AE025D
:100E60006093AD0210C0161617063CF489EF90E0AF
:100E70009093AE028093AD0206C087E09FEF9093FF
:100E8000AE028093AD026091AD027091AE0288E532
:100E900092E0BED5DF91CF911F910F91FF90EF901F
:100EA000DF90CF90BF90AF909F908F9008958F92DA
:100EB0009F92AF92BF92CF92DF92EF92FF920F93E9
:100EC0001F93CF93DF9300915D0210915E02C3E9FF
:100ED000D2E01983088360910E0370910F03601BA9
:100EE000710B7D836C83072E000C880B990BC9D77F
:100EF0004B015C012091CB023091CC024091CD029C
:100F00005091CE020E94CD0F2E813F814885598598
:100F1000B9D66B017C016E837F8388879987209186
:100F20000602309107024091080250910902C50162
:100F3000B4010E94CD0F9B01AC01C701B601A2D63E
:100F40006B017C018A859B859801281B390BB901AF
:100F5000330F880B990B95D7209102023091030231
:100F600040910402509105020E94CD0F9B01AC01FB
:100F7000C701B60186D652D77B836A831B870A874F
:100F80002C853D85620F731FCB01772324F48827BE
:100F90009927861B970B8A3F91052CF47093A0022A
:100FA00060939F0210C0161617063CF489EF90E07C
:100FB0009093A00280939F0206C087E09FEF9093DA
:100FC000A00280939F0260919F027091A00287E52A
:100FD00092E01ED5DF91CF911F910F91FF90EF907E
:100FE000DF90CF90BF90AF909F908F900895CF9358
:100FF000DF9380914302882329F06EDD13DEB5DE96
:1010000056DF22C0CEEFD2E0688179818A819B8150
:1010100005D78AE592E0FCD46C817D818E819F8129
:10102000FDD689E592E0F4D4688579858A859B852B
:10103000F5D688E592E0ECD46C857D858E859F851C
:10104000EDD687E592E0E4D4DF91CF910895CF9378
:10105000DF938AE592E09BD489E592E098D488E515
:1010600092E095D487E592E092D410920F0310920B
:101070000E0310921103109210031092130310929A
:10108000120310921503109214038DEB92E0FC01F1
:1010900015861486CFEAD2E01D861C86A1EAB2E04E
:1010A0001D961C921E921C9723E932E0F9011586C9
:1010B0001486FC0116821782108611861E821F82FA
:1010C0001886198616961D921D921D921C921997CC
:1010D000F9011682178210861186FC01138612868A
:1010E0001B861A861B961C921E921A97F90113866C
:1010F000128684E492E05BD5DF91CF9108958098C9
:101100008198889A899A789B26C080918B029091C9
:101110008C0204970297F8F422C0799B29C0809131
:101120008B0290918C020497F1F51CC080918B0288
:1011300090918C02049729F51EC080918B029091AA
:101140008C02059791F520C080918B0290918C02C2
:10115000059761F522C081E080939202DECF109264
:101160009202DBCF81E08093910210929002089569
:10117000799BDCCF06C01092910281E080939002AF
:1011800008957999DACF06C081E080939002109299
:101190008F020895799BD8CF08951092900281E034
:1011A00080938F0208958FB1ECCF8FB10895809115
:1011B0008B0290918C020497029738F48091000280
:1011C00090910102079709F49ADF80918B02909128
:1011D0008C02892B79F562E070E084E991E1FFDA15
:1011E00086E090E0909301028093000283E892E011
:1011F0000E94B80013D69B01772324F422273327BB
:10120000261B370B24393141ACF021DF87E090E019
:10121000909301028093000284E090E090938C020E
:1012200080938B02109284021092830210927C02AF
:1012300010927B0280919202882309F46DC1809103
:101240009102882309F43DC062E070E088EB9BE0E6
:1012500085DB86E090E090930102809300028BE7AB
:1012600092E00E94B800DAD59B01772324F422276C
:101270003327261B370B283B3B401CF1E8DE87E079
:1012800090E0909301028093000281E080938E02AF
:1012900081E090E090938C0280938B021092840204
:1012A0001092830210927C0210927B0210929102A3
:1012B0002FEF89E698E1215080409040E1F700C08F
:1012C000000080918E028823C9F180918B02909159
:1012D0008C02019799F563E070E088EB9BE03EDBC0
:1012E00086E090E090930102809300028BE792E009
:1012F0000E94B80093D59B01772324F4222733273B
:10130000261B370B283B3B40CCF0A1DE87E090E06A
:1013100090930102809300021092920210928E022A
:1013200084E090E090938C0280938B021092840270
:101330001092830210927C0210927B0280919002A4
:10134000882309F472C080918B0290918C028430C2
:10135000910559F562E070E080ED97E040DA86E0B3
:1013600090E0909301028093000283E892E00E9453
:10137000B80054D59B01772324F422273327261B5A
:10138000370B203D37400CF450C061DE85E090E023
:1013900090938C0280938B021092840210928302AD
:1013A00010927C0210927B0240C0059709F03DC06C
:1013B00062E070E088EB9BE0D1DA86E090E0909309
:1013C0000102809300028BE792E00E94B80026D5CC
:1013D0009B01772324F422273327261B370B283B36
:1013E0003B401CF134DE87E090E090930102809353
:1013F000000282E090E090938C0280938B0281E067
:1014000080938D02109284021092830210927C02CB
:1014100010927B02109290029FEF29E688E1915092
:1014200020408040E1F700C0000080918D028823B9
:10143000B9F180918B0290918C02029789F563E05B
:1014400070E088EB9BE08ADA86E090E090930102FE
:10145000809300028BE792E00E94B800DFD49B01EA
:10146000772324F422273327261B370B283B3B40C6
:10147000BCF0EDDD87E090E09093010280930002E4
:1014800085E090E090938C0280938B02109284020E
:101490001092830210927C0210927B0210929202B0
:1014A00080918F028823C1F162E070E084E798E1C7
:1014B00055DA86E090E090930102809300028BE77A
:1014C00092E00E94B800AAD49B01772324F422273B
:1014D0003327261B370B24373841F4F0B8DD87E07B
:1014E00090E0909301028093000283E090E090935B
:1014F0008C0280938B0210928402109283021092CD
:101500007C0210927B029FEF29E688E191502040F7
:101510008040E1F700C000000895CF93DF938098EA
:101520008198889A899A7894AFD2BAD2C7D2CDEDF1
:10153000D2E0E8D2809356028037B1F42AE037ED4A
:1015400043E25CE360910E0270910F028091100201
:101550009091110297D360930E0270930F028093C3
:1015600010029093110277C08F36B1F42AE037ED64
:1015700043E25CE360910E0270910F0280911002D1
:10158000909111027ED360930E0270930F028093AC
:101590001002909311025FC08936B1F42AE037ED52
:1015A00043EA5BE36091EB027091EC028091ED0203
:1015B0009091EE0267D36093EB027093EC028093FC
:1015C000ED029093EE0247C08436B1F42AE037ED85
:1015D00043E25CE360910A0270910B0280910C027D
:1015E00090910D024FD360930A0270930B02809387
:1015F0000C0290930D022FC08537B1F42AE037ED2D
:1016000043EA5BE36091EB027091EC028091ED02A2
:101610009091EE0236D36093EB027093EC028093CC
:10162000ED029093EE0217C08337A9F42AE037ED5C
:1016300043E25CE360910A0270910B0280910C021C
:1016400090910D021ED360930A0270930B02809357
:101650000C0290930D02ABDDCADC80918B0290915D
:101660008C02039709F44DC083E892E00E94B80011
:10167000D5D3CB014CD284E592E0A7D28C859D8551
:1016800046D220E030E048EC52E460910E027091C6
:101690000F0280911002909111027FD4BFD3CB0131
:1016A0005ED284E592E09FD220E030E048EC52E444
:1016B0006091EB027091EC028091ED029091EE024C
:1016C0006CD4ACD3CB014BD284E592E08CD220E039
:1016D00030E048EC52E460910A0270910B02809174
:1016E0000C0290910D0259D499D3CB0138D284E5E4
:1016F00092E079D281E592E068D281E592E073D2FE
:1017000018CF80E090E0DF91CF910895109284028D
:101710001092830283E892E00E94A50083E892E0A1
:101720000E94B00010927C0210927B028BE792E044
:101730000E94A5008BE792E00E94B0001092740214
:101740001092730283E792E00E94A50083E792E083
:101750000E94B00010926C0210926B028BE692E035
:101760000E94A5008BE692E00E94B00010926402F5
:101770001092630283E692E00E94A50083E692E065
:101780000E94B00010925C0210925B028BE592E026
:101790000E94A5008BE592E00E94B00061E08AE51E
:1017A00092E00E94F60162E089E592E00E94F60173
:1017B00063E088E592E00E94F60164E087E592E04C
:1017C0000C94F6010895FC0180818130F1F4E7E08A
:1017D000F1E0808180648083808180688083EAE09A
:1017E000F1E0808180628083E0E2F1E080818A60C4
:1017F0008083E1E2F1E080818A61808389EF90E07B
:10180000909327018093260108958230F1F4E7E058
:10181000F1E0808184608083808188608083EAE059
:10182000F1E0808188608083E0E2F1E0808182687D
:101830008083E1E2F1E080818A61808389EF90E03A
:10184000909327018093260108958330F1F4E7E017
:10185000F1E0808180618083808180628083EAE022
:10186000F1E0808180618083E0E2F1E0808182624A
:101870008083E1E2F1E080818A61808389EF90E0FA
:10188000909327018093260108958430E9F4E7E0DE
:10189000F1E0808181608083808182608083E1E0EB
:1018A000F1E0808188608083E0EAF0E080818268F6
:1018B0008083E1EAF0E080818A61808389EF90E0B3
:1018C0009093A7008093A6000895FC018081823048
:1018D00091F018F4813031F008958330A9F084300C
:1018E000E1F00895E8E0F1E0808180648083808108
:1018F0008F7780830895E8E0F1E0808184608083C1
:101900008081877F80830895E8E0F1E080818061B5
:10191000808380818F7D80830895E8E0F1E080817D
:101920008160808380818D7F80830895FC01808128
:10193000823091F018F4813031F008958330A9F0AD
:101940008430E1F00895E8E0F1E080818F7B8083CE
:101950008081806880830895E8E0F1E080818B7F5A
:1019600080838081886080830895E8E0F1E0808151
:101970008F7E80838081806280830895E8E0F1E03B
:1019800080818E7F80838081826080830895FC01C6
:1019900080818230B1F018F4813031F008958330C5
:1019A000E9F0843041F10895E8E0F1E080818F7B37
:1019B000808380818F77808310922D0110922C017B
:1019C0000895E8E0F1E080818B7F80838081877FCC
:1019D000808310922901109228010895E8E0F1E037
:1019E00080818F7E808380818F7D808310922B0108
:1019F00010922A010895E8E0F1E080818E7F8083D3
:101A000080818D7F80831092A9001092A800089594
:101A10000F931F93CF93DF938C01EB011C161D06D0
:101A20000CF453DFC93FD10544F4DD2344F4D195D0
:101A3000C195D109C8017ADF02C0C9EFD0E0F80131
:101A40008081823071F018F4813031F018C0833019
:101A500069F0843081F013C0D0932D01C0932C0124
:101A60000EC0D0932901C093280109C0D0932B0147
:101A7000C0932A0104C0D093A900C093A800DF91AD
:101A8000CF911F910F9108951092C50089E1809325
:101A9000C40088E98093C10086E08093C200089565
:101AA000109216031092D50089E18093D40088E942
:101AB0008093D10086E08093D20008951092350182
:101AC00087E68093340188E98093310186E0809332
:101AD00032010895E0ECF0E0908195FFFDCF809316
:101AE000C6000895E0EDF0E0908195FFFDCF809372
:101AF000D6000895E0E3F1E0908195FFFDCF80935B
:101B000036010895809118031092180308950F93D9
:101B10001F93CF93DF93CDB7DEB764970FB6F894DA
:101B2000DEBF0FBECDBF4AE0BE016F5F7F4FA0D2C8
:101B30008981882349F08E010E5F1F4FD3DFF801A2
:101B400081918F018111FACF64960FB6F894DEBFB0
:101B50000FBECDBFDF91CF911F910F9108950F93CD
:101B60001F93CF93DF93CDB7DEB764970FB6F8948A
:101B7000DEBF0FBECDBF4AE0BE016F5F7F4F78D2A0
:101B80008981882349F08E010E5F1F4FB3DFF80172
:101B900081918F018111FACF64960FB6F894DEBF60
:101BA0000FBECDBFDF91CF911F910F910895CF93BD
:101BB000DF93EC018881882329F021968BDF8991BE
:101BC0008111FCCFDF91CF910895CF93DF93EC018A
:101BD0008881882329F0219685DF89918111FCCFA6
:101BE000DF91CF910895CF93DF93EC018881882313
:101BF00029F021967FDF89918111FCCFDF91CF9170
:101C000008951F920F920FB60F9211248F93809117
:101C1000C60080931A038F910F900FBE0F901F90F4
:101C200018951F920F920FB60F9211248F938091E7
:101C3000CE00809319038F910F900FBE0F901F90CD
:101C400018951F920F920FB60F9211248F938091C7
:101C5000D600809317038F910F900FBE0F901F90A7
:101C600018951F920F920FB60F9211248F938091A7
:101C70003601809318038F910F900FBE0F901F9025
:101C800018955058BB27AA270ED04DC13ED130F031
:101C900043D120F031F49F3F11F41EF433C10EF410
:101CA000E095E7FB29C1E92F4FD180F3BA1762070E
:101CB00073078407950718F071F49EF567C10EF459
:101CC000E0950B2EBA2FA02D0B01B90190010C014C
:101CD000CA01A0011124FF27591B99F0593F50F464
:101CE000503E68F11A16F040A22F232F342F4427BC
:101CF000585FF3CF469537952795A795F0405395B4
:101D0000C9F77EF41F16BA0B620B730B840BBAF083
:101D10009150A1F0FF0FBB1F661F771F881FC2F7EE
:101D20000EC0BA0F621F731F841F48F48795779502
:101D30006795B795F7959E3F08F0B3CF9395880FB9
:101D400008F09927EE0F9795879508950CD0EBC072
:101D5000E3D040F0DAD030F021F45F3F19F0CCC08E
:101D6000511115C1CFC0F0D098F39923C9F3552371
:101D7000B1F3951B550BBB27AA276217730784077E
:101D800038F09F5F5F4F220F331F441FAA1FA9F334
:101D900033D00E2E3AF0E0E830D091505040E69526
:101DA000001CCAF729D0FE2F27D0660F771F881F87
:101DB000BB1F261737074807AB07B0E809F0BB0B76
:101DC000802DBF01FF2793585F4F2AF09E3F51059A
:101DD00068F092C0DCC05F3FECF3983EDCF3869580
:101DE00077956795B795F7959F5FC9F7880F911D10
:101DF0009695879597F90895E1E0660F771F881FFC
:101E0000BB1F621773078407BA0720F0621B730BAE
:101E1000840BBA0BEE1F88F7E095089504D0689400
:101E2000B111B5C0089598D088F09F5790F0B92FA0
:101E30009927B751A0F0D1F0660F771F881F991F1F
:101E40001AF0BA95C9F712C0B13081F09FD0B1E055
:101E500008959CC0672F782F8827B85F39F0B93F65
:101E6000CCF3869577956795B395D9F73EF4909521
:101E70008095709561957F4F8F4F9F4F0895E8949F
:101E800009C097FB3EF490958095709561957F4FC2
:101E90008F4F9F4F9923A9F0F92F96E9BB27939570
:101EA000F695879577956795B795F111F8CFFAF480
:101EB000BB0F11F460FF1BC06F5F7F4F8F4F9F4FB1
:101EC00016C0882311F096E911C0772321F09EE80F
:101ED000872F762F05C0662371F096E8862F70E075
:101EE00060E02AF09A95660F771F881FDAF7880F4F
:101EF0009695879597F9089597F99F6780E870E020
:101F000060E008959FEF80EC089500240A9416166F
:101F1000170618060906089500240A9412161306D7
:101F2000140605060895092E0394000C11F4882365
:101F300052F0BB0F40F4BF2B11F460FF04C06F5F81
:101F40007F4F8F4F9F4F089557FD9058440F551F57
:101F500059F05F3F71F04795880F97FB991F61F02B
:101F60009F3F79F087950895121613061406551FA2
:101F7000F2CF4695F1DF08C0161617061806991F0E
:101F8000F1CF86957105610508940895E894BB2703
:101F900066277727CB0197F908950BD0C4CFB5DF1B
:101FA00028F0BADF18F0952309F0A6CFABCF1124A3
:101FB000EECFCADFA0F3959FD1F3950F50E0551FE8
:101FC000629FF001729FBB27F00DB11D639FAA278E
:101FD000F00DB11DAA1F649F6627B00DA11D661FDD
:101FE000829F2227B00DA11D621F739FB00DA11DFE
:101FF000621F839FA00D611D221F749F3327A00DB8
:10200000611D231F849F600D211D822F762F6A2F53
:1020100011249F5750408AF0E1F088234AF0EE0FD8
:10202000FF1FBB1F661F771F881F91505040A9F7E5
:102030009E3F510570F060CFAACF5F3FECF3983E12
:10204000DCF3869577956795B795F795E7959F5F4C
:10205000C1F7FE2B880F911D9695879597F90895E6
:10206000EE0FFF1F881F8BBF0790F691E02D19948C
:10207000BB274A3031F4992322F4BDE29095819533
:102080009F4F01C0BB27FB015527AA27880F991F27
:10209000AA1FA41710F0A41B83955051B9F7A05D97
:1020A000AA3308F0A95DA193009779F7B111B19314
:1020B0001192CB0100C0DC01FC01672F71917723E5
:1020C000E1F7329704C07C916D9370836291AE17F3
:0A20D000BF07C8F30895F894FFCF8E
:1020DA000700333303410AD7633FCDCC4C3ECDCC06
:1020EA00CC3D000080BF0000803F0000803F000020
:1020FA0080BF000080BF0000803F0000803F0000DA
:10210A0080BF0000803F0000803F0000803F000049
:10211A00803F01016D657373616765207072696E36
:06212A00740D0A0009001B
:00000001FF
