:1000000072C00000ECC1000024C200003FC200002A
:1000100003C2000096C0000094C0000092C000001F
:1000200090C000008EC000008CC000008AC000009C
:1000300088C0000086C0000084C0000082C00000AC
:1000400080C000007EC000007CC000007AC00000BC
:1000500078C0000076C0000074C0000034C2000008
:1000600070C0000066C400006CC000006AC00000E0
:1000700068C0000066C0000064C0000062C00000EC
:1000800060C000005EC000005CC000005AC00000FC
:1000900060C4000056C0000054C0000052C0000000
:1000A00050C000004EC000004CC000004AC000001C
:1000B00048C0000046C0000044C0000042C000002C
:1000C00040C000003EC000003CC0000052C4000020
:1000D00038C0000036C0000034C0000032C000004C
:1000E00030C00000B00211241FBECFEFD1E2DEBF4E
:1000F000CDBF00E00CBF12E0A0E0B2E0EAE1FDE01D
:1001000000E00BBF02C007900D92A033B107D9F7F2
:1001100022E0A0E3B2E001C01D92A03BB207E1F7EC
:1001200010E0C3E7D0E000E005C021970109802F6F
:10013000FE01B6D5C237D10780E00807B1F7ABD0D2
:10014000EAC55ECF78948FEF809369008DB38F609E
:100150008DBB0895789485B5856085BD81E08093D9
:100160006E000895CF93DF93EC01688370D2CE01C7
:1001700021D360E070E0CE015ED3DF91CF9108958E
:100180008F929F92AF92BF92CF92DF92EF92FF92A7
:100190000F931F93CF93DF9300913F021091400282
:1001A0001093A00200939F020115110509F459C094
:1001B0006091000270910102601B710BC3E9D2E0F3
:1001C000798B688B072E000C880B990B7AD44B0126
:1001D0005C012C813D814E815F81FFD42A893B895E
:1001E0004C895D89D7D36B017C016A8B7B8B8C8BAF
:1001F0009D8B288139814A815B81C501B401EDD491
:10020000A7019601C7D36B017C018E899F89B80134
:10021000681B790B072E000C880B990B52D428858C
:1002200039854A855B85D9D49B01AC01C701B601EC
:10023000B0D314D47F876E871F8B0E8B288D398D9A
:10024000620F731F6A3F71052CF47093AC026093C8
:10025000AB020DC089EF90E09093AC028093AB02AB
:1002600006C084E190E09093AC028093AB02609171
:10027000AB027091AC0284E492E0DDD2DF91CF91C9
:100280001F910F91FF90EF90DF90CF90BF90AF90B4
:100290009F908F9008957894FDD2C3E9D2E00DE34A
:1002A00012E00CD380933002843671F42DEC3CECD8
:1002B0004CE45DE3688179818A819B816BD368839B
:1002C00079838A839B8347C0873771F42DEC3CEC9C
:1002D0004CE45DE3688579858A859B855BD3688777
:1002E00079878A879B8737C0813671F42DEC3CEC87
:1002F0004CE45DE3688179818A819B814AD368837C
:1003000079838A839B8327C0833771F42DEC3CEC7F
:100310004CE45DE3688579858A859B853AD3688757
:1003200079878A879B8717C0863651F480910002AF
:1003300090910102039690930102809300020BC0FA
:10034000873649F4809100029091010203979093BF
:1003500001028093000214DF82E092E0DCD220E010
:1003600030E048EC52E4688179818A819B8135D400
:1003700075D3CB01A8D28FE092E0CDD220E030E05F
:1003800048EC52E46C817D818E819F8126D466D3B6
:10039000CB0199D285E192E0BED220E030E048EC7A
:1003A00052E4688579858A859B8517D457D3CB011C
:1003B0008AD28AE192E0AFD28AE192E0ACD2809117
:1003C0000002909101027FD28DE192E0A4D2F80167
:1003D0008281938178D28CE292E09DD262CF1F928B
:1003E0000F920FB60F9211240BB60F928F939F931B
:1003F000EF93FF93EDE3F2E0808191810196918389
:100400008083FF91EF919F918F910F900BBE0F9082
:100410000FBE0F901F9018951F920F920FB60F925C
:1004200011240BB60F928F939F93EF93FF93E9E301
:10043000F2E080819181019691838083FF91EF9119
:100440009F918F910F900BBE0F900FBE0F901F903A
:1004500018951F920F920FB60F9211240BB60F92A0
:100460008F939F93EF93FF93E5E3F2E08081918177
:10047000019691838083FF91EF919F918F910F90CF
:100480000BBE0F900FBE0F901F9018951F920F92EA
:100490000FB60F9211240BB60F928F939F93EF9389
:1004A000FF93E1E3F2E08081918101969183808363
:1004B000FF91EF919F918F910F900BBE0F900FBE08
:1004C0000F901F9018951F920F920FB60F92112444
:1004D0000BB60F922F933F934F935F938F939F93FE
:1004E000AF93BF93CF93DF93EF93FF938DE392E0AE
:1004F000FC012081318133832283C9E3D2E028814A
:1005000039813B832A83A5E3B2E02D913C91119779
:1005100013963C932E93129741E352E0FA01208107
:10052000318133832283FC01118210821982188267
:100530001D921C92FA0111821082FF91EF91DF91BE
:10054000CF91BF91AF919F918F915F914F913F91CB
:100550002F910F900BBE0F900FBE0F901F9018950C
:100560000F931F93E3E9F2E000E010E020E83FE39F
:1005700000831183228333834DEC5CEC6CE47DE3D8
:10058000408751876287738784E190E0918F808FE5
:10059000E9E7F2E0008311832283338340875187A8
:1005A00062877387918F808FEFE5F2E0008311837C
:1005B000228333834087518762877387918F808F2F
:1005C000E5E4F2E00083118322833383408751877F
:1005D00062877387918F808F61E084E492E0C2DD4F
:1005E00062E083E492E0BEDD63E082E492E0BADDA3
:1005F00064E081E492E0B6DD10923E0210923D028A
:100600008DE392E09FDD8DE392E0A4DD10923A024B
:100610001092390289E392E095DD89E392E09ADD58
:10062000109236021092350285E392E08BDD85E36D
:1006300092E090DD109232021092310281E392E05A
:1006400081DD81E392E086DD1F910F910895FC0129
:1006500080818130F1F4E7E0F1E080818064808383
:10066000808180688083EAE0F1E08081806280831D
:10067000E0E2F1E080818A608083E1E2F1E0808164
:100680008A61808389EF90E090932701809326010F
:1006900008958230F1F4E7E0F1E0808184608083A6
:1006A000808188608083EAE0F1E0808188608083D7
:1006B000E0E2F1E0808182688083E1E2F1E0808124
:1006C0008A61808389EF90E09093270180932601CF
:1006D00008958330F1F4E7E0F1E080818061808368
:1006E000808180628083EAE0F1E0808180618083A4
:1006F000E0E2F1E0808182628083E1E2F1E08081EA
:100700008A61808389EF90E090932701809326018E
:1007100008958430E9F4E7E0F1E08081816080832E
:10072000808182608083E1E0F1E080818860808365
:10073000E0EAF0E0808182688083E1EAF0E0808195
:100740008A61808389EF90E09093A7008093A60050
:100750000895FC018081823091F018F4813031F0ED
:1007600008958330A9F08430E1F00895E8E0F1E0E5
:1007700080818064808380818F7780830895E8E022
:10078000F1E08081846080838081877F8083089509
:10079000E8E0F1E080818061808380818F7D8083CB
:1007A0000895E8E0F1E080818160808380818D7F21
:1007B00080830895FC0180818230B1F018F481308B
:1007C00031F008958330E9F0843041F10895E8E094
:1007D000F1E080818F7B808380818F77808310928E
:1007E0002D0110922C010895E8E0F1E080818B7FCB
:1007F00080838081877F8083109229011092280155
:100800000895E8E0F1E080818F7E808380818F7D94
:10081000808310922B0110922A010895E8E0F1E004
:1008200080818E7F808380818D7F80831092A9005C
:100830001092A80008950F931F93CF93DF938C011C
:10084000EB011C161D060CF484DFF8018081823058
:1008500071F018F4813031F018C0833069F08430C1
:1008600081F013C0D0932D01C0932C010EC0D09302
:100870002901C093280109C0D0932B01C0932A01FC
:1008800004C0D093A900C093A800DF91CF911F911D
:100890000F9108951092C50087E68093C40088E9FF
:1008A0008093C10086E08093C2000895E0ECF0E000
:1008B000908195FFFDCF8093C60008958091AF028F
:1008C0001092AF0208950F931F93CF93DF93CDB78C
:1008D000DEB764970FB6F894DEBF0FBECDBF4AE017
:1008E000BE016F5F7F4FE4D18981882349F08E017B
:1008F0000E5F1F4FDBDFF80181918F018111FACF6D
:1009000064960FB6F894DEBF0FBECDBFDF91CF91D6
:100910001F910F910895CF93DF93EC018881882375
:1009200029F02196C3DF89918111FCCFDF91CF910E
:1009300008951F920F920FB60F9211248F938091FA
:10094000C6008093AF028F910F900FBE0F901F9043
:1009500018951F920F920FB60F9211248F938091CA
:10096000CE008093AE028F910F900FBE0F901F901C
:1009700018951F920F920FB60F9211248F938091AA
:10098000D6008093AD028F910F900FBE0F901F90F5
:1009900018955058BB27AA270ED0E5C0D6D030F006
:1009A000DBD020F031F49F3F11F41EF4CBC00EF4E5
:1009B000E095E7FBC1C0E92FE7D080F3BA176207E3
:1009C00073078407950718F071F49EF5FFC00EF4C5
:1009D000E0950B2EBA2FA02D0B01B90190010C014F
:1009E000CA01A0011124FF27591B99F0593F50F467
:1009F000503E68F11A16F040A22F232F342F4427BF
:100A0000585FF3CF469537952795A795F0405395B6
:100A1000C9F77EF41F16BA0B620B730B840BBAF086
:100A20009150A1F0FF0FBB1F661F771F881FC2F7F1
:100A30000EC0BA0F621F731F841F48F48795779505
:100A40006795B795F7959E3F08F0B3CF9395880FBC
:100A500008F09927EE0F97958795089504D068942C
:100A6000B111B5C0089598D088F09F5790F0B92F74
:100A70009927B751A0F0D1F0660F771F881F991FF3
:100A80001AF0BA95C9F712C0B13081F09FD0B1E029
:100A900008959CC0672F782F8827B85F39F0B93F39
:100AA000CCF3869577956795B395D9F73EF49095F5
:100AB0008095709561957F4F8F4F9F4F0895E89473
:100AC00009C097FB3EF490958095709561957F4F96
:100AD0008F4F9F4F9923A9F0F92F96E9BB27939544
:100AE000F695879577956795B795F111F8CFFAF454
:100AF000BB0F11F460FF1BC06F5F7F4F8F4F9F4F85
:100B000016C0882311F096E911C0772321F09EE8E2
:100B1000872F762F05C0662371F096E8862F70E048
:100B200060E02AF09A95660F771F881FDAF7880F22
:100B30009695879597F9089597F99F6780E870E0F3
:100B400060E008959FEF80EC089500240A94161643
:100B5000170618060906089500240A9412161306AB
:100B6000140605060895092E0394000C11F4882339
:100B700052F0BB0F40F4BF2B11F460FF04C06F5F55
:100B80007F4F8F4F9F4F089557FD9058440F551F2B
:100B900059F05F3F71F04795880F97FB991F61F0FF
:100BA0009F3F79F087950895121613061406551F76
:100BB000F2CF4695F1DF08C0161617061806991FE2
:100BC000F1CF86957105610508940895E894BB27D7
:100BD00066277727CB0197F908950BD0C4CFB5DFEF
:100BE00028F0BADF18F0952309F0A6CFABCF112477
:100BF000EECFCADFA0F3959FD1F3950F50E0551FBC
:100C0000629FF001729FBB27F00DB11D639FAA2761
:100C1000F00DB11DAA1F649F6627B00DA11D661FB0
:100C2000829F2227B00DA11D621F739FB00DA11DD1
:100C3000621F839FA00D611D221F749F3327A00D8B
:100C4000611D231F849F600D211D822F762F6A2F27
:100C500011249F5750408AF0E1F088234AF0EE0FAC
:100C6000FF1FBB1F661F771F881F91505040A9F7B9
:100C70009E3F510570F060CFAACF5F3FECF3983EE6
:100C8000DCF3869577956795B795F795E7959F5F20
:100C9000C1F7FE2B880F911D9695879597F90895BA
:100CA000EE0FFF1F881F8BBF0790F691E02D199460
:100CB000BB274A3031F4992322F4BDE29095819507
:100CC0009F4F01C0BB27FB015527AA27880F991FFB
:100CD000AA1FA41710F0A41B83955051B9F7A05D6B
:100CE000AA3308F0A95DA193009779F7B111B193E8
:100CF0001192CB0100C0DC01FC01672F71917723B9
:100D0000E1F7329704C07C916D9370836291AE17C6
:0A0D1000BF07C8F30895F894FFCF61
:100D1A000A006D6F746F72313A206B703D200020AB
:100D2A006B693D2000206B643D00090900096D6F65
:100D3A00746F723173706565643D20000D0A00009E
:00000001FF
