S021000049324320436F6D6D756E69636174696F6E2028536C617665292E7372656363
S113000072C00000A0C000009EC00000FEC000003E
S113001023C10000ACC00000D1C0000094C00000A7
S113002092C0000096C500008EC000008CC0000085
S11300308AC0000088C0000086C0000053C70000CA
S113004082C0000080C000007EC000007CC00000B0
S11300507AC0000078C0000076C0000024C100000F
S113006072C00000BBC700006EC000006CC000007E
S11300706AC0000068C0000066C0000064C00000E0
S113008062C0000060C000005EC000005CC00000F0
S1130090BFC7000058C0000056C0000054C0000094
S11300A052C0000050C000004EC000004CC0000010
S11300B04AC0000048C0000046C0000044C0000020
S11300C042C0000040C000003EC00000B1C70000B4
S11300D03AC0000038C00000E1C7000034C000008E
S11300E032C00000D00511241FBECFEFD1E2DEBF25
S11300F0CDBF00E00CBF12E0A0E0B2E0E8E5F4E11F
S113010000E00BBF02C007900D92A430B107D9F7ED
S113011022E0A4E0B2E001C01D92AE39B207E1F7DB
S113012010E0C3E7D0E000E006C021970109802F6A
S1130130FE010E94EF09C237D10780E00807A9F742
S1130140ECD30C942A0A5CCF78948FEF80936900E7
S11301508FE080936A008DB38C638DBB089578948F
S113016085B5856085BD81E080936E0008951F92FA
S11301700F920FB60F9211240BB60F928F939F9389
S1130180EF93FF93049B08C0EDE1F2E0808191813D
S113019001969183808307C0EDE1F2E08081918133
S11301A0019791838083FF91EF919F918F910F909D
S11301B00BBE0F900FBE0F901F9018951F920F92B9
S11301C00FB60F9211240BB60F928F939F93EF9358
S11301D0FF93019B08C0E5E1F2E0808191810196E3
S11301E09183808307C0E5E1F2E0808191810197EA
S11301F091838083FF91EF919F918F910F900BBE1C
S11302000F900FBE0F901F9018951F920F920FB66C
S11302100F9211240BB60F928F939F93EF93FF933A
S1130220029B08C0EDE0F2E0808191810196918308
S1130230808307C0EDE0F2E0808191810197918392
S11302408083FF91EF919F918F910F900BBE0F9040
S11302500FBE0F901F9018951F920F920FB60F921A
S113026011240BB60F928F939F93EF93FF93039BED
S113027008C0E5E0F2E0808191810196918380835A
S113028007C0E5E0F2E0808191810197918380834A
S1130290FF91EF919F918F910F900BBE0F900FBE26
S11302A00F901F9018951F920F920FB60F92112462
S11302B00BB60F928F939F93EF93FF938091040259
S11302C08F5F8093040291E090939102823011F445
S11302D010920402EDE1F2E08081918193838283A4
S11302E011821082E5E1F2E080819181938382831F
S11302F011821082EDE0F2E0808191819383828308
S113030011821082E5E0F2E08081918193838283FF
S113031011821082FF91EF919F918F910F900BBEEC
S11303200F900FBE0F901F9018958F929F92AF92CF
S1130330BF92CF92DF92EF92FF920F931F93CF93CE
S1130340DF9320911F0230912002C7E7D2E03D875E
S11303502C87082F880F110B021B130B198B088B8A
S1130360B801012E000C880B990B4AD74B015C0194
S11303702C813D814E815F81CFD72A893B894C896D
S11303805D89A7D66B017C016A8B7B8B8C8B9D8BE3
S1130390288139814A815B81C501B401BDD79B01A4
S11303A0AC01C701B60195D66B017C018E899F898A
S11303B09801281B390BB901330F880B990B20D7EF
S11303C0288539854A855B85A7D79B01AC01C70180
S11303D0B6017FD6E2D67F876E871F8B0E8B288D62
S11303E0398D620F731FCB01772324F48827992753
S11303F0861B970B8A3F91052CF4709390026093AF
S11304008F0210C0161617063CF489EF90E0909303
S1130410900280938F0206C087E09FEF9093900232
S113042080938F0260918F027091900288E292E033
S11304301DD5DF91CF911F910F91FF90EF90DF9029
S1130440CF90BF90AF909F908F9008958F929F927E
S1130450AF92BF92CF92DF92EF92FF920F931F93CE
S1130460CF93DF932091170230911802CDE5D2E0AB
S11304703D872C87082F880F110B021B130B198B38
S1130480088BB801012E000C880B990BB9D64B01CF
S11304905C012C813D814E815F813ED72A893B8955
S11304A04C895D8916D66B017C016A8B7B8B8C8BA6
S11304B09D8B288139814A815B81C501B4012CD788
S11304C09B01AC01C701B60104D66B017C018E8986
S11304D09F899801281B390BB901330F880B990B9D
S11304E08FD6288539854A855B8516D79B01AC0153
S11304F0C701B601EED551D67F876E871F8B0E8B51
S1130500288D398D620F731FCB01772324F488273C
S11305109927861B970B8A3F91052CF470937602DA
S11305206093750210C0161617063CF489EF90E02C
S1130530909376028093750206C087E09FEF9093B4
S1130540760280937502609175027091760287E25B
S113055092E08CD4DF91CF911F910F91FF90EF9097
S1130560DF90CF90BF90AF909F908F9008958F921F
S11305709F92AF92BF92CF92DF92EF92FF920F932E
S11305801F93CF93DF9320910F0230911002C3E4A5
S1130590D2E03D872C87082F880F110B021B130B09
S11305A0198B088BB801012E000C880B990B28D6E7
S11305B04B015C012C813D814E815F81ADD62A893E
S11305C03B894C895D8985D56B017C016A8B7B8B6A
S11305D08C8B9D8B288139814A815B81C501B40153
S11305E09BD69B01AC01C701B60173D56B017C019D
S11305F08E899F899801281B390BB901330F880B09
S1130600990BFED5288539854A855B8585D69B015E
S1130610AC01C701B6015DD5C0D57F876E871F8B3E
S11306200E8B288D398D620F731FCB01772324F431
S113063088279927861B970B8A3F91052CF4709382
S11306405C0260935B0210C0161617063CF489EF37
S113065090E090935C0280935B0206C087E09FEF7A
S113066090935C0280935B0260915B0270915C02E8
S113067086E292E0FBD3DF91CF911F910F91FF901F
S1130680EF90DF90CF90BF90AF909F908F900895A0
S11306908F929F92AF92BF92CF92DF92EF92FF928E
S11306A00F931F93CF93DF93209107023091080299
S11306B0C9E2D2E03D872C87082F880F110B021B5B
S11306C0130B198B088BB801012E000C880B990BA6
S11306D097D54B015C012C813D814E815F811CD6F5
S11306E02A893B894C895D89F4D46B017C016A8B2E
S11306F07B8B8C8B9D8B288139814A815B81C501E1
S1130700B4010AD69B01AC01C701B601E2D46B0166
S11307107C018E899F899801281B390BB901330FFD
S1130720880B990B6DD5288539854A855B85F4D569
S11307309B01AC01C701B601CCD42FD57F876E874E
S11307401F8B0E8B288D398D620F731FCB0177237E
S113075024F488279927861B970B8A3F91052CF44C
S1130760709342026093410210C0161617063CF4BF
S113077089EF90E0909342028093410206C087E0A3
S11307809FEF9093420280934102609141027091E5
S1130790420285E292E06AD3DF91CF911F910F91DB
S11307A0FF90EF90DF90CF90BF90AF909F908F908D
S11307B00895CF93DF9380910002882391F0809174
S11307C09102882309F44FC0C6E9D2E08881ADDDE7
S11307D089813CDE8A81CBDE8B815ADF10929102C3
S11307E042C0C6E9D2E06881062E000C770B880B64
S11307F0990B06D52DEC3CEC4CEA50E48DD5CDD4C8
S113080088E292E033D36981062E000C770B880BC3
S1130810990BF6D42DEC3CEC4CEA50E47DD5BDD4D8
S113082087E292E023D36A81062E000C770B880BB3
S1130830990BE6D42DEC3CEC4CEA50E46DD5ADD4E8
S113084086E292E013D36B81062E000C770B880BA3
S1130850990BD6D42DEC3CEC4CEA50E45DD59DD4F8
S113086085E292E003D3DF91CF910895CF93DF9394
S113087088E292E0BAD287E292E0B7D286E292E0CE
S1130880B4D285E292E0B1D289E292E0FC01178A07
S1130890168AC3E4D2E01F8A1E8AADE5B2E05796F9
S11308A01C921E92569727E732E0F901178A168A9E
S11308B0FC01128A138A148A158A1A8A1B8A1C8AD2
S11308C01D8A52961D921D921D921C925597F901F4
S11308D0128A138A148A158AFC01178616861F86C3
S11308E01E861F961C921E921E97F9011786168665
S11308F0FC01118E108E198E188E59961C921E9220
S11309005897F901118E108EE6E9F2E010821182F7
S113091012821382DF91CF910895E8E6F0E080819E
S113092081608083EBE6F0E0808180628083E7E78A
S1130930F2E086E696E6A6E2B0E480839183A283A1
S1130940B383148215821682178280E090E0A0E4BB
S1130950B0E480879187A287B387EDE5F2E08DEC60
S11309609CECACE0B0E480839183A283B3831482D3
S113097015821682178280E090E0A0E8B0E48087B8
S11309809187A287B387E3E4F2E083E393E3A3EFE1
S1130990BFE380839183A283B3831482158216827A
S11309A0178280E090E0A0ECB0E480879187A28772
S11309B0B387E9E2F2E04AE959E969EF7FE340836A
S11309C0518362837383148215821682178280870F
S11309D09187A287B387A4D2AFD278940F2EFDE17A
S11309E02F2EF2E03F2EF02D07E712E00F2EFDEC44
S11309F04F2EFCEC5F2EFCE86F2EFFE37F2EF02DD4
S1130A00C12CD12C6894EE24E6F8FE2CCDE5D2E07E
S1130A100F2E812C912CF0ECAF2EF0E4BF2EF02D94
S1130A20D10112968D919C911397A2D281E092E00C
S1130A30C7D2E6E9F2E080818C5F893008F04AC0D1
S1130A4086E696E6A6E2B0E4F80180839183A28369
S1130A50B3831482158216821782C086D186E286F9
S1130A60F3868DEC9CECACE0B0E488839983AA8394
S1130A70BB831C821D821E821F8280E090E0A0E85E
S1130A80B0E488879987AA87BB87E3E4F2E083E32D
S1130A9093E3A3EFBFE380839183A283B3831482A0
S1130AA015821682178280869186A286B386E9E231
S1130AB0F2E08AE999E9A9EFBFE380839183A283F5
S1130AC0B383148215821682178280869186A28649
S1130AD0B3863DC0D8014D925D926D927C9213977E
S1130AE0F80114821582168217821896CD92DD922F
S1130AF0ED92FC921B97488259826A827B821C8207
S1130B001D821E821F82C886D986EA86FB86E3E49C
S1130B10F2E086E696E6A6E6BFE380839183A283AD
S1130B20B3831482158216821782C086D186E28628
S1130B30F386E9E2F2E080839183A283B383148293
S1130B40158216821782C086D186E286F38631DE4C
S1130B5067CF1F920F920FB60F9211240BB60F920C
S1130B602F933F934F935F936F937F938F939F93B1
S1130B70AF93BF93EF93FF9379DEFF91EF91BF9112
S1130B80AF919F918F917F916F915F914F913F9121
S1130B902F910F900BBE0F900FBE0F901F901895C2
S1130BA081E08093280288E292E03BD082E0809347
S1130BB0270287E292E035D083E08093260286E222
S1130BC092E02FD084E08093250285E292E029D040
S1130BD010921E0210921D028DE192E0B5DA8DE1B1
S1130BE092E0BDDA109216021092150285E192E0AD
S1130BF0ABDA85E192E0B3DA10920E0210920D02A4
S1130C008DE092E0A1DA8DE092E0A9DA109206027A
S1130C101092050285E092E097DA85E092E09FCA9F
S1130C200895FC0180818130F1F4E7E0F1E08081F6
S1130C3080648083808180688083EAE0F1E0808141
S1130C4080628083E0E2F1E080818A608083E1E277
S1130C50F1E080818A61808389EF90E0909327019D
S1130C608093260108958230F1F4E7E0F1E0808179
S1130C7088608083808184608083EAE0F1E0808101
S1130C8088608083E0E2F1E0808182688083E1E231
S1130C90F1E080818A61808389EF90E0909327015D
S1130CA08093260108958330F1F4E7E0F1E0808138
S1130CB080618083808180628083EAE0F1E08081CA
S1130CC080618083E0E2F1E0808182628083E1E2FE
S1130CD0F1E080818A61808389EF90E0909327011D
S1130CE08093260108958430E9F4E7E0F1E08081FF
S1130CF082608083808181608083E1E0F1E0808193
S1130D0088608083E0EAF0E0808182688083E1EAA1
S1130D10F0E080818A61808389EF90E09093A7005E
S1130D208093A6000895FC018081823091F018F42C
S1130D30813031F008958330A9F08430E1F00895D2
S1130D40E8E0F1E080818064808380818F77808314
S1130D500895E8E0F1E080818860808380818B7F62
S1130D6080830895E8E0F1E0808180618083808160
S1130D708F7D80830895E8E0F1E080818260808344
S1130D8080818E7F80830895FC018081823091F080
S1130D9018F4813031F008958330A9F08430E1F003
S1130DA00895E8E0F1E080818F7B80838081806812
S1130DB080830895E8E0F1E08081877F80838081EB
S1130DC0846080830895E8E0F1E080818F7E8083F1
S1130DD08081806280830895E8E0F1E080818D7FE6
S1130DE080838081816080830895FC0180818230CA
S1130DF0B1F018F4813031F008958330E9F0843093
S1130E0041F10895E8E0F1E080818F7B8083808167
S1130E108F77808310922D0110922C010895E8E0C1
S1130E20F1E08081877F808380818B7F8083109233
S1130E302901109228010895E8E0F1E080818F7E75
S1130E40808380818F7D808310922B0110922A01F0
S1130E500895E8E0F1E080818D7F808380818E7F3A
S1130E6080831092A9001092A80008950F931F93F5
S1130E70CF93DF938C01EB011C161D060CF453DF9A
S1130E80C93FD10544F4DD2344F4D195C195D1097A
S1130E90C8017ADF02C0C9EFD0E0F8018081823056
S1130EA071F018F4813031F018C0833069F0843067
S1130EB081F013C0D0932D01C0932C010EC0D093A8
S1130EC02901C093280109C0D0932B01C0932A01A2
S1130ED004C0D093A900C093A800DF91CF911F91C3
S1130EE00F9108951F920F920FB60F9211248F93B2
S1130EF080919302833021F0809193028F5F01C02F
S1130F0080E08093930280919302833019F481E00E
S1130F10809392028F910F900FBE0F901F9018959F
S1130F201092C50087E68093C40088E98093C100CD
S1130F3086E08093C200089510929502E6E9F2E0FB
S1130F4010821182128213821092D50089E180935B
S1130F50D40088E98093D10086E08093D20008957C
S1130F60E0ECF0E0908195FFFDCF8093C6000895FA
S1130F700F931F93CF93DF93CDB7DEB764970FB66C
S1130F80F894DEBF0FBECDBF4AE0BE016F5F7F4F56
S1130F902ED28981882349F08E010E5F1F4FE0DF36
S1130FA0F80181918F018111FACF64960FB6F894FC
S1130FB0DEBF0FBECDBFDF91CF911F910F9108957A
S1130FC0CF93DF93EC018881882329F02196C8DF31
S1130FD089918111FCCFDF91CF9108951F920F92D7
S1130FE00FB60F9211240BB60F928F93EF93FF93CA
S1130FF0E6ECF0E0808180939D021082FF91EF91F6
S11310008F910F900BBE0F900FBE0F901F901895ED
S11310101F920F920FB60F9211248F938091CE00DE
S113102080939C028F910F900FBE0F901F90189584
S11310301F920F920FB60F9211240BB60F928F933B
S11310409F93EF93FF939091D60090939A0280918F
S11310509402882389F080919502E82FF0E0EA5603
S1131060FD4F90838F5F843018F48093950204C001
S1131070109295021092940280919A028F3719F47B
S113108081E080939402FF91EF919F918F910F9053
S11310900BBE0F900FBE0F901F9018951F920F92CA
S11310A00FB60F9211240BB60F928F93EF93FF9309
S11310B0E6E3F1E0808180939B021082FF91EF913F
S11310C08F910F900BBE0F900FBE0F901F9018952D
S11310D05058BB27AA270ED0E5C0D6D030F0DBD0BD
S11310E020F031F49F3F11F41EF4CBC00EF4E095D0
S11310F0E7FBC1C0E92FE7D080F3BA176207730793
S11311008407950718F071F49EF5FFC00EF4E0957E
S11311100B2EBA2FA02D0B01B90190010C01CA01AD
S1131120A0011124FF27591B99F0593F50F4503E58
S113113068F11A16F040A22F232F342F4427585F4A
S1131140F3CF469537952795A795F0405395C9F762
S11311507EF41F16BA0B620B730B840BBAF091501A
S1131160A1F0FF0FBB1F661F771F881FC2F70EC0B9
S1131170BA0F621F731F841F48F48795779567958C
S1131180B795F7959E3F08F0B3CF9395880F08F075
S11311909927EE0F97958795089504D06894B11117
S11311A0B5C0089598D088F09F5790F0B92F99272B
S11311B0B751A0F0D1F0660F771F881F991F1AF05E
S11311C0BA95C9F712C0B13081F09FD0B1E008954B
S11311D09CC0672F782F8827B85F39F0B93FCCF3CC
S11311E0869577956795B395D9F73EF49095809554
S11311F0709561957F4F8F4F9F4F0895E89409C074
S113120097FB3EF490958095709561957F4F8F4F35
S11312109F4F9923A9F0F92F96E9BB279395F6954B
S1131220879577956795B795F111F8CFFAF4BB0FC9
S113123011F460FF1BC06F5F7F4F8F4F9F4F16C02D
S1131240882311F096E911C0772321F09EE8872FB7
S1131250762F05C0662371F096E8862F70E060E073
S11312602AF09A95660F771F881FDAF7880F9695EC
S1131270879597F9089597F99F6780E870E060E093
S113128008959FEF80EC089500240A94161617061B
S113129018060906089500240A9412161306140663
S11312A005060895092E0394000C11F4882352F0C6
S11312B0BB0F40F4BF2B11F460FF04C06F5F7F4F7E
S11312C08F4F9F4F089557FD9058440F551F59F065
S11312D05F3F71F04795880F97FB991F61F09F3F1F
S11312E079F087950895121613061406551FF2CF48
S11312F04695F1DF08C0161617061806991FF1CF98
S113130086957105610508940895E894BB276627BE
S11313107727CB0197F908950BD0C4CFB5DF28F018
S1131320BADF18F0952309F0A6CFABCF1124EECF86
S1131330CADFA0F3959FD1F3950F50E0551F629F2C
S1131340F001729FBB27F00DB11D639FAA27F00D1A
S1131350B11DAA1F649F6627B00DA11D661F829F41
S11313602227B00DA11D621F739FB00DA11D621F26
S1131370839FA00D611D221F749F3327A00D611D43
S1131380231F849F600D211D822F762F6A2F112425
S11313909F5750408AF0E1F088234AF0EE0FFF1F78
S11313A0BB1F661F771F881F91505040A9F79E3FAF
S11313B0510570F060CFAACF5F3FECF3983EDCF3A9
S11313C0869577956795B795F795E7959F5FC1F7EC
S11313D0FE2B880F911D9695879597F90895EE0F2A
S11313E0FF1F881F8BBF0790F691E02D1994BB2730
S11313F04A3031F4992322F4BDE2909581959F4FB0
S113140001C0BB27FB015527AA27880F991FAA1FD4
S1131410A41710F0A41B83955051B9F7A05DAA330B
S113142008F0A95DA193009779F7B111B1931192D6
S1131430CB0100C0DC01FC01672F71917723E1F738
S1131440329704C07C916D9370836291AE17BF078D
S10B1450C8F30895F894FFCFDE
S1071458010D0A0074
S9030000FC
