S0130000526F626F7420436865636B2E737265630D
S113000072C00000B4C00000D9C00000FEC00000EF
S113001023C1000048C100006DC1000094C000006D
S113002092C0000090C000008EC000008CC0000090
S11300308AC0000088C0000086C0000084C00000A0
S113004082C0000080C000007EC000007CC00000B0
S11300507AC0000078C0000076C0000072C10000C1
S113006072C000000C9490096EC000006CC00000C7
S11300706AC0000068C0000066C0000064C00000E0
S113008062C0000060C000005EC000005CC00000F0
S11300900C94A00958C0000056C0000054C00000D1
S11300A052C0000050C000004EC000004CC0000010
S11300B04AC0000048C0000046C0000044C0000020
S11300C042C0000040C000003EC000000C94B009D3
S11300D03AC0000038C000000C94C00934C00000CD
S11300E032C000007B0711241FBECFEFD1E2DEBF78
S11300F0CDBF00E00CBF12E0A0E0B2E0E8EFF7E112
S113010000E00BBF02C007900D92A437B107D9F7E6
S113011023E0A4E7B2E001C01D92A032B207E1F7E8
S113012010E0C3E7D0E000E006C021970109802F6A
S1130130FE010E94BF0BC237D10780E00807A9F770
S1130140E5D50C94FA0B5CCF78948FEF809369001B
S11301508FE080936A008DB38F638DBB089578948C
S113016085B5856085BD81E080936E0008951F92FA
S11301700F920FB60F9211240BB60F928F939F9389
S1130180EF93FF93009B08C0E0EAF2E08081918145
S113019001969183808307C0E0EAF2E08081918137
S11301A0019791838083FF91EF919F918F910F909D
S11301B00BBE0F900FBE0F901F9018951F920F92B9
S11301C00FB60F9211240BB60F928F939F93EF9358
S11301D0FF93019B08C0E8E9F2E0808191810196D8
S11301E09183808307C0E8E9F2E0808191810197DF
S11301F091838083FF91EF919F918F910F900BBE1C
S11302000F900FBE0F901F9018951F920F920FB66C
S11302100F9211240BB60F928F939F93EF93FF933A
S1130220029B08C0E0E9F2E080819181019691830C
S1130230808307C0E0E9F2E0808191810197918396
S11302408083FF91EF919F918F910F900BBE0F9040
S11302500FBE0F901F9018951F920F920FB60F921A
S113026011240BB60F928F939F93EF93FF93039BED
S113027008C0E8E8F2E0808191810196918380834F
S113028007C0E8E8F2E0808191810197918380833F
S1130290FF91EF919F918F910F900BBE0F900FBE26
S11302A00F901F9018951F920F920FB60F92112462
S11302B00BB60F928F939F93EF93FF93049B08C009
S11302C0E0E8F2E08081918101969183808307C008
S11302D0E0E8F2E080819181019791838083FF912E
S11302E0EF919F918F910F900BBE0F900FBE0F90C7
S11302F01F9018951F920F920FB60F9211240BB6F0
S11303000F928F939F93EF93FF93069B08C0E8EAA5
S1130310F2E08081918101969183808307C0E8EAAD
S1130320F2E080819181019791838083FF91EF9125
S11303309F918F910F900BBE0F900FBE0F901F9047
S113034018951F920F920FB60F9211240BB60F92AD
S11303508F939F93EF93FF9381E08093E8028093C0
S11303604502E8E9F2E080819181938382831182DE
S11303701082E0E9F2E0808191819383828311828B
S11303801082E8E8F2E08081918193838283118274
S11303901082E0E8F2E0808191819383828311826C
S11303A01082FF91EF919F918F910F900BBE0F9050
S11303B00FBE0F901F901895FC0160831682138264
S11303C012820895789458D76B987398E4E0F1E01A
S11303D0808182608083E5E0F1E080818D7F80838D
S11303E00895CF93DF93EC0160D790E09D838C83D5
S11303F0DF91CF910895CF93DF93EC016883CDD53E
S1130400CE01AFD660E070E0CE01ECD6DF91CF91A3
S113041008952F923F924F925F926F927F928F92A4
S11304209F92AF92BF92CF92DF92EF92FF920F937F
S11304301F93CF93DF9300D01F92CDB7DEB70F2E5B
S1130440F3E08F2EF3E09F2EF02D0F2EF5E1EF2E2B
S1130450F2E0FF2EF02D0F2EF3E02F2EF3E03F2ECF
S1130460F02D340127017A8269820F2EFDEFAF2E21
S1130470F2E0BF2EF02D8201C12CD12CE12CF12C05
S1130480BC82AB82EB81FC8161917191FC83EB8333
S1130490F80181909190A190B1908F01072E000CEA
S11304A0880B990B0E94D00AA50194010E945C0B51
S11304B09B01AC016C2D7D2D8E2D9F2D72D7C62EE8
S11304C0D72EE82EF92E8B819C8182159305D1F6C7
S11304D08C2D9D2DAE2DBF2DE981FA8180839183D2
S11304E0A283B383F4E06F0E711C8CE0480E511CA0
S11304F093E1691693E0790609F0B5CF03E013E0C0
S113050020E030E048EB51E4F801608171818281A0
S113051093810E945C0B20E030E049E753E4A5D7C7
S11305200E949D0A70931A036093190320E030E03F
S113053048EB51E4F80164817581868197810E94BA
S11305405C0B20E030E049E753E48FD7F6D7709393
S113055018036093170320E030E048EB51E4F801FE
S113056060857185828593850E945C0B20E030E074
S113057049E753E47AD7E1D77093160360931503E0
S113058020E030E048EB51E4F80164857585868508
S113059097850E945C0B20E030E049E753E465D77F
S11305A0CCD770931403609313030F900F900F90A4
S11305B00F90DF91CF911F910F91FF90EF90DF90FB
S11305C0CF90BF90AF909F908F907F906F905F90EF
S11305D04F903F902F9008958F929F92AF92BF9229
S11305E0CF92DF92EF92FF920F931F93CF93DF93FB
S11305F09093FC028093FB0280914602882309F4C5
S11306006CC080914502882309F46BC0CDEED2E022
S113061083E290E09D878C8785E792E0E2DE8C019F
S1130620998388836C857D85681B790B7B836A83BA
S1130630072E000C880B990BB3D74B015C0120915A
S11306400D0230910E0240910F02509110020E944F
S11306505C0B288539854A855B85A3D66B017C01B3
S1130660688779878A879B872091110230911202CB
S11306704091130250911402C501B4010E945C0B15
S11306809B01AC01C701B6018CD66B017C018C8146
S11306909D819801281B390BB901330F880B990BE5
S11306A07FD72091090230910A0240910B025091A8
S11306B00C020E945C0B9B01AC01C701B60170D611
S11306C03CD77F836E83709300036093FF02109284
S11306D0450280914602811104C0109200031092D9
S11306E0FF02EDEFF2E080E590E0918380831582D4
S11306F014828FDEDF91CF911F910F91FF90EF90C5
S1130700DF90CF90BF90AF909F908F9008958F927D
S11307109F92AF92BF92CF92DF92EF92FF920F938C
S11307201F93CF93DF9300919A0210919B02CAED1D
S1130730D2E0198308836091190370911A03601B36
S1130740710B7D836C83072E000C880B990B28D7C3
S11307504B015C012091E9023091EA024091EB02E5
S11307605091EC02A9D72E813F814885598519D62D
S11307706B017C016E837F838887998720910502B2
S1130780309106024091070250910802C501B4015C
S113079093D79B01AC01C701B60103D66B017C0161
S11307A08A859B859801281B390BB901330F880B67
S11307B0990BF6D620910102309102024091030276
S11307C05091040279D79B01AC01C701B601E8D569
S11307D0B4D67B836A831B870A872C853D85620F89
S11307E0731FCB01772324F488279927861B970B43
S11307F08A3F91052CF47093E7026093E60210C0DF
S1130800161617063CF489EF90E09093E702809364
S1130810E60206C087E09FEF9093E7028093E6022A
S11308206091E6027091E7028FE792E0DBD4DF91FA
S1130830CF911F910F91FF90EF90DF90CF90BF90D9
S1130840AF909F908F9008958F929F92AF92BF9296
S1130850CF92DF92EF92FF920F931F93CF93DF9388
S11308600091920210919302CCECD2E01983088398
S11308706091170370911803601B710B7D836C8367
S1130880072E000C880B990B8BD64B015C01209131
S1130890E9023091EA024091EB025091EC020CD74C
S11308A02E813F81488559857CD56B017C016E83FF
S11308B07F838887998720910502309106024091B1
S11308C0070250910802C501B401F6D69B01AC01A0
S11308D0C701B60166D56B017C018A859B859801A9
S11308E0281B390BB901330F880B990B59D620916A
S11308F00102309102024091030250910402DCD6BD
S11309009B01AC01C701B6014BD517D67B836A8323
S11309101B870A872C853D85620F731FCB017723C4
S113092024F488279927861B970B8A3F91052CF47A
S11309307093D9026093D80210C0161617063CF4BF
S113094089EF90E09093D9028093D80206C087E0A3
S11309509FEF9093D9028093D8026091D80270914E
S1130960D9028EE792E03ED4DF91CF911F910F918F
S1130970FF90EF90DF90CF90BF90AF909F908F90BB
S113098008958F929F92AF92BF92CF92DF92EF928F
S1130990FF920F931F93CF93DF9300918A021091DC
S11309A08B02CEEBD2E0198308836091150370911A
S11309B01603601B710B7D836C83072E000C880B60
S11309C0990BEED54B015C012091E9023091EA02CA
S11309D04091EB025091EC026FD62E813F81488505
S11309E05985DFD46B017C016E837F838887998767
S11309F020910502309106024091070250910802AD
S1130A00C501B40159D69B01AC01C701B601C9D4D3
S1130A106B017C018A859B859801281B390BB901E0
S1130A20330F880B990BBCD520910102309102023F
S1130A3040910302509104023FD69B01AC01C701CF
S1130A40B601AED47AD57B836A831B870A872C854B
S1130A503D85620F731FCB01772324F488279927E0
S1130A60861B970B8A3F91052CF47093CB026093FD
S1130A70CA0210C0161617063CF489EF90E0909352
S1130A80CB028093CA0206C087E09FEF9093CB020B
S1130A908093CA026091CA027091CB028DE792E002
S1130AA0A1D3DF91CF911F910F91FF90EF90DF9031
S1130AB0CF90BF90AF909F908F9008958F929F9208
S1130AC0AF92BF92CF92DF92EF92FF920F931F9358
S1130AD0CF93DF930091820210918302C0EBD2E0A6
S1130AE0198308836091130370911403601B710BC5
S1130AF07D836C83072E000C880B990B51D54B0119
S1130B005C012091E9023091EA024091EB0250919C
S1130B10EC02D2D52E813F814885598542D46B01A0
S1130B207C016E837F8388879987209105023091A9
S1130B3006024091070250910802C501B401BCD5D8
S1130B409B01AC01C701B6012CD46B017C018A85E1
S1130B509B859801281B390BB901330F880B990B1E
S1130B601FD520910102309102024091030250915D
S1130B700402A2D59B01AC01C701B60111D4DDD496
S1130B807B836A831B870A872C853D85620F731FCD
S1130B90CB01772324F488279927861B970B8A3F58
S1130BA091052CF47093BD026093BC0210C016161C
S1130BB017063CF489EF90E09093BD028093BC0249
S1130BC006C087E09FEF9093BD028093BC026091C2
S1130BD0BC027091BD028CE792E004D3DF91CF9107
S1130BE01F910F91FF90EF90DF90CF90BF90AF9047
S1130BF09F908F900895CF93DF938091470288232D
S1130C0059F08091E802882339F081DD1DDEB9DED8
S1130C1055DF1092E80222C0C3E0D3E068817981F5
S1130C208A819B818AD48FE792E0DCD26C817D81BA
S1130C308E819F8182D48EE792E0D4D268857985B3
S1130C408A859B857AD48DE792E0CCD26C857D85AC
S1130C508E859F8572D48CE792E0C4D2DF91CF91C8
S1130C600895CF93DF938FE792E07BD28EE792E0F3
S1130C7078D28DE792E075D28CE792E072D210922E
S1130C80140310921303109216031092150310927A
S1130C9018031092170310921A03109219038AED85
S1130CA092E0FC0115861486CCECD2E01D861C86ED
S1130CB0AEEBB2E01D961C921E921C9720EB32E024
S1130CC0F90115861486FC01168217821086118696
S1130CD01E821F821886198616961D921D921D92D9
S1130CE01C921997F9011682178210861186FC014D
S1130CF0138612861B861A861B961C921E921A97BE
S1130D00F90113861286DF91CF9108957894A6D2C3
S1130D1088E492E0F7D285E792E054DBC1D2809375
S1130D20740280910002882331F062E070E080E177
S1130D3097E252DC05C063E070E080E197E24CDCAE
S1130D40809174028037B1F42AE037ED43E25CE32A
S1130D506091110270911202809113029091140219
S1130D6020D3609311027093120280931302909324
S1130D7014027CC08F36B1F42AE037ED43E25CE321
S1130D8060911102709112028091130290911402E9
S1130D9007D360931102709312028093130290930D
S1130DA0140264C08936B1F42CEA35EC47E257E307
S1130DB060910D0270910E0280910F0290911002C9
S1130DC0F0D260930D0270930E0280930F02909301
S1130DD010024CC08436B1F42FE632E143E05AE30A
S1130DE06091090270910A0280910B0290910C02A9
S1130DF0D8D26093090270930A0280930B029093F5
S1130E000C0234C08537B1F42CEA35EC47E257E3E1
S1130E1060910D0270910E0280910F029091100268
S1130E20BFD260930D0270930E0280930F029093D1
S1130E3010021CC08337B1F42FE632E143E05AE3D9
S1130E406091090270910A0280910B0290910C0248
S1130E50A7D26093090270930A0280930B029093C5
S1130E600C0204C0823711F410920002C4DE85E73C
S1130E7092E0B7DA8F3F910509F4F3DE20E030E029
S1130E8048EC52E4609111027091120280911302B5
S1130E909091140211D451D3CB010CD285E692E087
S1130EA031D220E030E543EC57E460910D027091BB
S1130EB00E0280910F0290911002FED33ED3CB011B
S1130EC0F9D18CE692E01ED220E030E04AE754E407
S1130ED06091090270910A0280910B0290910C02B8
S1130EE0EBD32BD3CB01E6D185E692E00BD282E69D
S1130EF092E008D213CF1092A9021092A80288EAB5
S1130F0092E022D988EA92E02AD91092A1021092A2
S1130F10A00280EA92E018D980EA92E020D91092E7
S1130F2099021092980288E992E00ED988E992E039
S1130F3016D9109291021092900280E992E004D99D
S1130F4080E992E00CD9109289021092880288E814
S1130F5092E0FAD888E892E002D9109281021092C5
S1130F60800280E892E0F0D880E892E0F8D861E06E
S1130F708FE792E040DA62E08EE792E03CDA63E0E9
S1130F808DE792E038DA64E08CE792E034DA60E0EE
S1130F9070E085E792E010CA0895FC0180818130F9
S1130FA0F1F4E7E0F1E080818064808380818068EF
S1130FB08083EAE0F1E0808180628083E0E2F1E016
S1130FC080818A608083E1E2F1E080818A618083AC
S1130FD089EF90E090932701809326010895823051
S1130FE0F1F4E7E0F1E080818460808380818860AF
S1130FF08083EAE0F1E0808188608083E0E2F1E0D0
S1131000808182688083E1E2F1E080818A6180836B
S113101089EF90E09093270180932601089583300F
S1131020F1F4E7E0F1E08081806180838081806277
S11310308083EAE0F1E0808180618083E0E2F1E096
S1131040808182628083E1E2F1E080818A61808331
S113105089EF90E0909327018093260108958430CE
S1131060E9F4E7E0F1E0808181608083808182603F
S11310708083E1E0F1E0808188608083E0EAF0E051
S1131080808182688083E1EAF0E080818A618083E4
S113109089EF90E09093A7008093A6000895FC0147
S11310A08081823091F018F4813031F008958330DA
S11310B0A9F08430E1F00895E8E0F1E080818064F3
S11310C0808380818F7780830895E8E0F1E08081D8
S11310D0846080838081877F80830895E8E0F1E0E5
S11310E080818061808380818F7D80830895E8E0A2
S11310F0F1E080818160808380818D7F8083089589
S1131100FC018081823091F018F4813031F008952F
S11311108330A9F08430E1F00895E8E0F1E08081C3
S11311208F7B80838081806880830895E8E0F1E08C
S113113080818B7F80838081886080830895E8E04C
S1131140F1E080818F7E8083808180628083089536
S1131150E8E0F1E080818E7F8083808182608083FB
S11311600895FC0180818230B1F018F4813031F0AF
S113117008958330E9F0843041F10895E8E0F1E026
S113118080818F7B808380818F77808310922D0173
S113119010922C010895E8E0F1E080818B7F808338
S11311A08081877F808310922901109228010895FD
S11311B0E8E0F1E080818F7E808380818F7D808371
S11311C010922B0110922A010895E8E0F1E0808149
S11311D08E7F808380818D7F80831092A9001092FE
S11311E0A80008950F931F93CF93DF938C01EB0115
S11311F01C161D060CF453DFC93FD10544F4DD234E
S113120044F4D195C195D109C8017ADF02C0C9EF70
S1131210D0E0F8018081823071F018F4813031F02F
S113122018C0833069F0843081F013C0D0932D014D
S1131230C0932C010EC0D0932901C093280109C08A
S1131240D0932B01C0932A0104C0D093A900C0936A
S1131250A800DF91CF911F910F91089510921B0365
S11312601092D50087E68093D40088E98093D1005A
S113127086E08093D20008951092350189E180932D
S1131280340188E98093310186E080933201089526
S1131290E0EDF0E0908195FFFDCF8093D6000895B6
S11312A080911C0310921C03089580911D031092D9
S11312B01D0308950F931F93CF93DF93CDB7DEB72C
S11312C064970FB6F894DEBF0FBECDBF4AE0BE01EF
S11312D06F5F7F4F5CD28981882349F08E010E5F56
S11312E01F4FD6DFF80181918F018111FACF6496E7
S11312F00FB6F894DEBF0FBECDBFDF91CF911F9123
S11313000F910895CF93DF93EC018881882329F00E
S11313102196BEDF89918111FCCFDF91CF91089591
S11313201F920F920FB60F9211248F938091C600D3
S113133080931F038F910F900FBE0F901F901895ED
S11313401F920F920FB60F9211248F938091CE00AB
S113135080931E038F910F900FBE0F901F901895CE
S11313601F920F920FB60F9211248F938091D60083
S113137080931C038F910F900FBE0F901F901895B0
S11313801F920F920FB60F9211248F938091360102
S113139080931D038F910F900FBE0F901F9018958F
S11313A05058BB27AA270ED04DC13ED130F043D1AF
S11313B020F031F49F3F11F41EF433C10EF4E09594
S11313C0E7FB29C1E92F4FD180F3BA1762077307EE
S11313D08407950718F071F49EF567C10EF4E09543
S11313E00B2EBA2FA02D0B01B90190010C01CA01DB
S11313F0A0011124FF27591B99F0593F50F4503E86
S113140068F11A16F040A22F232F342F4427585F77
S1131410F3CF469537952795A795F0405395C9F78F
S11314207EF41F16BA0B620B730B840BBAF0915047
S1131430A1F0FF0FBB1F661F771F881FC2F70EC0E6
S1131440BA0F621F731F841F48F4879577956795B9
S1131450B795F7959E3F08F0B3CF9395880F08F0A2
S11314609927EE0F9795879508950CD0EBC0E3D09C
S113147040F0DAD030F021F45F3F19F0CCC05111C4
S113148015C1CFC0F0D098F39923C9F35523B1F314
S1131490951B550BBB27AA2762177307840738F0DF
S11314A09F5F5F4F220F331F441FAA1FA9F333D03E
S11314B00E2E3AF0E0E830D091505040E695001CF2
S11314C0CAF729D0FE2F27D0660F771F881FBB1FAE
S11314D0261737074807AB07B0E809F0BB0B802D88
S11314E0BF01FF2793585F4F2AF09E3F510568F0D4
S11314F092C0DCC05F3FECF3983EDCF386957795B1
S11315006795B795F7959F5FC9F7880F911D9695D5
S1131510879597F90895E1E0660F771F881FBB1F31
S1131520621773078407BA0720F0621B730B840BDE
S1131530BA0BEE1F88F7E095089504D06894B111B2
S1131540B5C0089598D088F09F5790F0B92F992787
S1131550B751A0F0D1F0660F771F881F991F1AF0BA
S1131560BA95C9F712C0B13081F09FD0B1E00895A7
S11315709CC0672F782F8827B85F39F0B93FCCF328
S1131580869577956795B395D9F73EF490958095B0
S1131590709561957F4F8F4F9F4F0895E89409C0D0
S11315A097FB3EF490958095709561957F4F8F4F92
S11315B09F4F9923A9F0F92F96E9BB279395F695A8
S11315C0879577956795B795F111F8CFFAF4BB0F26
S11315D011F460FF1BC06F5F7F4F8F4F9F4F16C08A
S11315E0882311F096E911C0772321F09EE8872F14
S11315F0762F05C0662371F096E8862F70E060E0D0
S11316002AF09A95660F771F881FDAF7880F969548
S1131610879597F9089597F99F6780E870E060E0EF
S113162008959FEF80EC089500240A941616170677
S113163018060906089500240A94121613061406BF
S113164005060895092E0394000C11F4882352F022
S1131650BB0F40F4BF2B11F460FF04C06F5F7F4FDA
S11316608F4F9F4F089557FD9058440F551F59F0C1
S11316705F3F71F04795880F97FB991F61F09F3F7B
S113168079F087950895121613061406551FF2CFA4
S11316904695F1DF08C0161617061806991FF1CFF4
S11316A086957105610508940895E894BB2766271B
S11316B07727CB0197F908950BD0C4CFB5DF28F075
S11316C0BADF18F0952309F0A6CFABCF1124EECFE3
S11316D0CADFA0F3959FD1F3950F50E0551F629F89
S11316E0F001729FBB27F00DB11D639FAA27F00D77
S11316F0B11DAA1F649F6627B00DA11D661F829F9E
S11317002227B00DA11D621F739FB00DA11D621F82
S1131710839FA00D611D221F749F3327A00D611D9F
S1131720231F849F600D211D822F762F6A2F112481
S11317309F5750408AF0E1F088234AF0EE0FFF1FD4
S1131740BB1F661F771F881F91505040A9F79E3F0B
S1131750510570F060CFAACF5F3FECF3983EDCF305
S1131760869577956795B795F795E7959F5FC1F748
S1131770FE2B880F911D9695879597F90895EE0F86
S1131780FF1F881F8BBF0790F691E02D1994BB278C
S11317904A3031F4992322F4BDE2909581959F4F0C
S11317A001C0BB27FB015527AA27880F991FAA1F31
S11317B0A41710F0A41B83955051B9F7A05DAA3368
S11317C008F0A95DA193009779F7B111B193119233
S11317D0CB0100C0DC01FC01672F71917723E1F795
S11317E0329704C07C916D9370836291AE17BF07EA
S10B17F0C8F30895F894FFCF3B
S11317F801333303410AD7633F6F12833DACC527D6
S113180839CDCCCC3E000080BF0000803F00008072
S11318183F000080BF000080BF0000803F000080C0
S11318283F000080BF0000803F0000803F00008030
S11318383F0000803F010101496E697469616C6968
S11318487A696E6720616C6C20726F626F742E2ED9
S11318582E200D0A0020652D3209090020652D353A
S10718680909000066
S9030000FC
