:1000000072C000009EC000009CC00000AEC0000096
:1000100098C0000096C00000CFC0000092C0000051
:1000200090C0000028C200008CC0000073C2000015
:1000300088C0000086C0000084C0000007C1000026
:1000400080C000007EC000007CC000007AC00000BC
:1000500078C0000076C0000074C00000D4C000006A
:1000600070C000008BC30000B8C300006AC000006D
:1000700068C0000066C0000064C0000062C00000EC
:1000800060C000005EC000005CC000005AC00000FC
:10009000EBC3000018C4000054C0000052C00000B0
:1000A00050C000004EC000004CC000004AC000001C
:1000B00048C0000046C0000044C0000042C000002C
:1000C00040C000003EC000003CC000002AC4000048
:1000D00038C4000036C000007BC40000A8C4000083
:1000E00030C000003E0311241FBECFEFD1E2DEBFBF
:1000F000CDBF00E00CBF12E0A0E0B2E0E0EDFAE01E
:1001000000E00BBF02C007900D92A630B107D9F7EF
:1001100024E0A6E0B2E001C01D92A434B207E1F7EA
:1001200010E0C3E7D0E000E005C021970109802F6F
:10013000FE01C4D4C237D10780E00807B1F754D21A
:10014000C5C45ECF789480E3809369008CE080938F
:100150006A008DB384628DBB0895789485B58560FF
:1001600085BD81E080936E0008951F920F920FB6B7
:100170000F9211240BB60F928F939F93EF93FF93DF
:10018000009B08C0EEE0F2E08081918101969183AE
:10019000808307C0EEE0F2E0808191810197918336
:1001A0008083FF91EF919F918F910F900BBE0F90E5
:1001B0000FBE0F901F9018951F920F920FB60F92BF
:1001C00011240BB60F928F939F93EF93FF93059B90
:1001D00008C0E6E0F2E080819181019691838083FE
:1001E00007C0E6E0F2E080819181019791838083EE
:1001F000FF91EF919F918F910F900BBE0F900FBECB
:100200000F901F9018951F920F920FB60F92112406
:100210008F9381E080930202809304028093030213
:1002200080930102809300028F910F900FBE0F9078
:100230001F9018952FB7F89460914B0370914C0361
:1002400080914D0390914E032FBF08951F920F92FE
:100250000FB60F9211248F939F93AF93BF9380910A
:100260004B0390914C03A0914D03B0914E03019626
:10027000A11DB11D80934B0390934C03A0934D039C
:10028000B0934E038091470390914803A091490396
:10029000B0914A030396A11DB11D8093470390932B
:1002A0004803A0934903B0934A0380914703909178
:1002B0004803A0914903B0914A038D379105A105E8
:1002C000B10538F18091470390914803A09149030B
:1002D000B0914A038D579109A109B1098093470351
:1002E00090934803A0934903B0934A0380914B0332
:1002F00090914C03A0914D03B0914E030196A11D26
:10030000B11D80934B0390934C03A0934D03B09386
:100310004E03BF91AF919F918F910F900FBE0F90A1
:100320001F901895E8E0F1E0908181E089278083B3
:100330001092C9021092C8021092C7021092C6020F
:100340000895CF92DF92EF92FF920F931F93CF9376
:10035000DF93E3E6F2E088E290E0928B818B148AEF
:10036000138AC5EAD2E08DE290E09F878E87A4E8E9
:10037000B2E01F969C938E931E9740E050E060EB96
:1003800070E4458B568B678B708F118E128E138E97
:10039000148E40E050E06AEF73E4458F568F678F0C
:1003A00070A30F2EF1EECF2EFAE7DF2EF4E1EF2E41
:1003B000FFE3FF2EF02DCD8ADE8AEF8AF88E0DEC5A
:1003C0001CEC2CE43DE3098F1A8F2B8F3C8F40E00F
:1003D00050E069EB73E44D8F5E8F6F8F78A3559675
:1003E000CD92DD92ED92FC92589759960D931D9304
:1003F0002D933C935C975D964D935D936D937C93A9
:100400009097E2E4F2E08AE999E9A9E1BEE3858BFD
:10041000968BA78BB08F118E128E138E148E46E69C
:1004200056E666E67FE3458F568F678F70A3E1E25D
:10043000F2E0858B968BA78BB08F118E128E138E68
:10044000148E80E090E0A0E8BFE3858F968FA78FA1
:10045000B0A3F0DE6093CA027093CB028093CC020B
:100460009093CD02DF91CF911F910F91FF90EF906C
:10047000DF90CF9008951F920F920FB60F92112424
:100480000BB60F922F933F934F935F936F937F938E
:100490008F939F93AF93BF93EF93FF9380911F022E
:1004A000811105C081E080931F023CDF20C0809154
:1004B0001B02811107C081E080931B0280934F03D0
:1004C00031DF15C080911602811111C081E0809347
:1004D000160228DFEBE6F0E080818F7E80831092A9
:1004E0000F0210920E021092070210920602FF9164
:1004F000EF91BF91AF919F918F917F916F915F919C
:100500004F913F912F910F900BBE0F900FBE0F9008
:100510001F9018951F920F920FB60F9211240BB6D1
:100520000F922F933F934F935F936F937F938F938C
:100530009F93AF93BF93EF93FF9380911E0281111E
:1005400005C0F0DE81E080931E023BC080911D0259
:10055000811107C081E08093200280931D02E2DEBA
:1005600030C080911C02811105C081E080931C0283
:10057000D9DE27C080911A02811107C081E08093E3
:10058000200280931A02CEDE1CC0809119028111D4
:1005900005C081E080931902C5DE13C08091180266
:1005A000811107C081E08093200280931802BADE97
:1005B00008C080911702811104C081E08093170266
:1005C000B1DEFF91EF91BF91AF919F918F917F919C
:1005D0006F915F914F913F912F910F900BBE0F90B4
:1005E0000FBE0F901F901895CAE0D1E088818F7ED2
:1005F000888388818F7B8883EBE0F1E08081806154
:10060000808380818064808385988D98819882988A
:10061000899A8A9A07E011E0F801808181608083DD
:10062000E8E0F1E080818E7F808387E690E003D16F
:1006300089E190E0B4D187E690E027D282DE789419
:10064000279A8FEFF8018083188210BA81BBE8E007
:10065000F1E080832FEF37EA91E62150304090405F
:10066000E1F700C0000010822FEF37EA91E6215039
:1006700030409040E1F700C00000EBCF8EEC92E0FC
:100680002FD0E5EAF2E01086118681E0808BE4E865
:10069000F2E010861186808BE3E6F2E01086118688
:1006A000808BE2E4F2E010861186808BE1E2F2E0DA
:1006B00010861186808B10920F0210920E028EE02F
:1006C00092E040DD8EE092E048DD10920702109249
:1006D000060286E092E036DD86E092E03ECD0895A7
:1006E000FC0114AE15AE16AE17AEDC01A05CBF4F18
:1006F0001D921D921D921C92139714961D921D928D
:100700001D921C921397D4961C92D0971D921D9205
:100710001D921C92139714961D921D921D921C926D
:10072000139714961D921D921D921C92139710AA56
:1007300011AA12AA13AA14AA15AA16AA17AA10AEC9
:1007400011AE12AE13AE94961D921D921D921C9284
:10075000139718974FE35EE16AEF7BE34D935D9348
:100760006D937C931397E059FF4F80E49AEDAFE7C8
:10077000B8E380839183A283B38308951F920F927D
:100780000FB60F9211240BB60F922F938F939F9356
:10079000EF93FF938091C0002091C6008871E09193
:1007A0000004EF5FEF719091FF03E91739F0E093D8
:1007B0000004F0E0ED5FFB4F208301C082E08093F6
:1007C000FE03FF91EF919F918F912F910F900BBEA0
:1007D0000F900FBE0F901F9018951F920F920FB69B
:1007E0000F9211240BB60F928F939F93EF93FF9369
:1007F0009091020480910104981769F0E09101043E
:10080000EF5FEF71E0930104F0E0ED5DFB4F80815D
:100810008093C60005C0E1ECF0E080818F7D80838D
:10082000FF91EF919F918F910F900BBE0F900FBE94
:100830000F901F90189510920204109201041092CC
:1008400000041092FF03992324F422E02093C000B7
:100850009F779093C5008093C40088E98093C1007E
:1008600086E08093C20008951F920F920FB60F92F8
:1008700011240BB60F922F938F939F93EF93FF93B7
:100880008091C8002091CE008871E091BB03EF5F9A
:10089000EF719091BA03E91739F0E093BB03F0E0F0
:1008A000E254FC4F208301C082E08093B903FF91A2
:1008B000EF919F918F912F910F900BBE0F900FBED4
:1008C0000F901F9018951F920F920FB60F92112440
:1008D0000BB60F928F939F93EF93FF939091BD036D
:1008E0008091BC03981769F0E091BC03EF5FEF7152
:1008F000E093BC03F0E0E252FC4F80818093CE0095
:1009000005C0E9ECF0E080818F7D8083FF91EF915D
:100910009F918F910F900BBE0F900FBE0F901F9065
:1009200018951F920F920FB60F9211248F938091FA
:10093000D600809343048F910F900FBE0F901F90AD
:1009400018951F920F920FB60F9211240BB60F92AB
:100950008F939F93EF93FF939091980380919703C8
:10096000981769F0E0919703EF5FEF71E0939703B9
:10097000F0E0E756FC4F80818093D60005C0E1EDA2
:10098000F0E080818F7D8083FF91EF919F918F9127
:100990000F900BBE0F900FBE0F901F9018951092E6
:1009A000980310929703109296031092950399233F
:1009B00024F422E02093D0009F779093D500809379
:1009C000D40088E98093D10086E08093D200089516
:1009D0001F920F920FB60F9211240BB60F922F9306
:1009E0008F939F93EF93FF93809130012091360175
:1009F0008871E0915203EF5FEF7190915103E91715
:100A000039F0E0935203F0E0EB5AFC4F208301C031
:100A100082E080935003FF91EF919F918F912F91EE
:100A20000F900BBE0F900FBE0F901F9018951F9246
:100A30000F920FB60F9211240BB60F928F939F93C4
:100A4000EF93FF939091540380915303981769F0AB
:100A5000E0915303EF5FEF71E0935303F0E0EB5845
:100A6000FC4F80818093360105C0E1E3F1E0808195
:100A70008F7D8083FF91EF919F918F910F900BBE9F
:100A80000F900FBE0F901F90189510925403109264
:100A900053031092520310925103992324F426E039
:100AA000209330019F77909335018093340188E93A
:100AB0008093310186E0809332010895EE0FFF1F8D
:100AC000881F8BBF0790F691E02D1994F894FFCF03
:060AD0000101010101001B
:00000001FF
